{
	"Contracts/Inheritance.sol": {
		"myContract": {
			"abi": [
				{
					"inputs": [
						{
							"internalType": "string",
							"name": "_secret",
							"type": "string"
						}
					],
					"stateMutability": "nonpayable",
					"type": "constructor"
				},
				{
					"inputs": [],
					"name": "getSecret",
					"outputs": [
						{
							"internalType": "string",
							"name": "",
							"type": "string"
						}
					],
					"stateMutability": "view",
					"type": "function"
				}
			],
			"devdoc": {
				"kind": "dev",
				"methods": {},
				"version": 1
			},
			"evm": {
				"assembly": "    /* \"Contracts/Inheritance.sol\":559:983  contract myContract is Ownable {... */\n  mstore(0x40, 0x80)\n    /* \"Contracts/Inheritance.sol\":625:794  constructor (string memory _secret) {... */\n  callvalue\n  dup1\n  iszero\n  tag_1\n  jumpi\n  0x00\n  dup1\n  revert\ntag_1:\n  pop\n  mload(0x40)\n  sub(codesize, bytecodeSize)\n  dup1\n  bytecodeSize\n  dup4\n  codecopy\n  dup2\n  dup2\n  add\n  0x40\n  mstore\n  dup2\n  add\n  swap1\n  tag_2\n  swap2\n  swap1\n  tag_3\n  jump\t// in\ntag_2:\n    /* \"Contracts/Inheritance.sol\":148:158  msg.sender */\n  caller\n    /* \"Contracts/Inheritance.sol\":140:145  owner */\n  0x00\n  dup1\n    /* \"Contracts/Inheritance.sol\":140:158  owner = msg.sender */\n  0x0100\n  exp\n  dup2\n  sload\n  dup2\n  0xffffffffffffffffffffffffffffffffffffffff\n  mul\n  not\n  and\n  swap1\n  dup4\n  0xffffffffffffffffffffffffffffffffffffffff\n  and\n  mul\n  or\n  swap1\n  sstore\n  pop\n    /* \"Contracts/Inheritance.sol\":672:696  SecretVault _secretVault */\n  0x00\n    /* \"Contracts/Inheritance.sol\":715:722  _secret */\n  dup2\n    /* \"Contracts/Inheritance.sol\":699:723  new SecretVault(_secret) */\n  mload(0x40)\n  tag_8\n  swap1\n  tag_9\n  jump\t// in\ntag_8:\n  tag_10\n  swap2\n  swap1\n  tag_11\n  jump\t// in\ntag_10:\n  mload(0x40)\n  dup1\n  swap2\n  sub\n  swap1\n  0x00\n  create\n  dup1\n  iszero\n  dup1\n  iszero\n  tag_12\n  jumpi\n  returndatasize\n  0x00\n  dup1\n  returndatacopy\n  revert(0x00, returndatasize)\ntag_12:\n  pop\n    /* \"Contracts/Inheritance.sol\":672:723  SecretVault _secretVault = new SecretVault(_secret) */\n  swap1\n  pop\n    /* \"Contracts/Inheritance.sol\":756:768  _secretVault */\n  dup1\n    /* \"Contracts/Inheritance.sol\":734:745  secretVault */\n  0x01\n  0x00\n    /* \"Contracts/Inheritance.sol\":734:769  secretVault = address(_secretVault) */\n  0x0100\n  exp\n  dup2\n  sload\n  dup2\n  0xffffffffffffffffffffffffffffffffffffffff\n  mul\n  not\n  and\n  swap1\n  dup4\n  0xffffffffffffffffffffffffffffffffffffffff\n  and\n  mul\n  or\n  swap1\n  sstore\n  pop\n    /* \"Contracts/Inheritance.sol\":661:794  {... */\n  pop\n    /* \"Contracts/Inheritance.sol\":625:794  constructor (string memory _secret) {... */\n  pop\n    /* \"Contracts/Inheritance.sol\":559:983  contract myContract is Ownable {... */\n  jump(tag_13)\ntag_9:\n  dataSize(sub_1)\n  dup1\n  dataOffset(sub_1)\n  dup4\n  codecopy\n  add\n  swap1\n  jump\t// out\n    /* \"#utility.yul\":7:82   */\ntag_14:\n    /* \"#utility.yul\":40:46   */\n  0x00\n    /* \"#utility.yul\":73:75   */\n  0x40\n    /* \"#utility.yul\":67:76   */\n  mload\n    /* \"#utility.yul\":57:76   */\n  swap1\n  pop\n    /* \"#utility.yul\":7:82   */\n  swap1\n  jump\t// out\n    /* \"#utility.yul\":88:205   */\ntag_15:\n    /* \"#utility.yul\":197:198   */\n  0x00\n    /* \"#utility.yul\":194:195   */\n  dup1\n    /* \"#utility.yul\":187:199   */\n  revert\n    /* \"#utility.yul\":211:328   */\ntag_16:\n    /* \"#utility.yul\":320:321   */\n  0x00\n    /* \"#utility.yul\":317:318   */\n  dup1\n    /* \"#utility.yul\":310:322   */\n  revert\n    /* \"#utility.yul\":334:451   */\ntag_17:\n    /* \"#utility.yul\":443:444   */\n  0x00\n    /* \"#utility.yul\":440:441   */\n  dup1\n    /* \"#utility.yul\":433:445   */\n  revert\n    /* \"#utility.yul\":457:574   */\ntag_18:\n    /* \"#utility.yul\":566:567   */\n  0x00\n    /* \"#utility.yul\":563:564   */\n  dup1\n    /* \"#utility.yul\":556:568   */\n  revert\n    /* \"#utility.yul\":580:682   */\ntag_19:\n    /* \"#utility.yul\":621:627   */\n  0x00\n    /* \"#utility.yul\":672:674   */\n  0x1f\n    /* \"#utility.yul\":668:675   */\n  not\n    /* \"#utility.yul\":663:665   */\n  0x1f\n    /* \"#utility.yul\":656:661   */\n  dup4\n    /* \"#utility.yul\":652:666   */\n  add\n    /* \"#utility.yul\":648:676   */\n  and\n    /* \"#utility.yul\":638:676   */\n  swap1\n  pop\n    /* \"#utility.yul\":580:682   */\n  swap2\n  swap1\n  pop\n  jump\t// out\n    /* \"#utility.yul\":688:868   */\ntag_20:\n    /* \"#utility.yul\":736:813   */\n  0x4e487b7100000000000000000000000000000000000000000000000000000000\n    /* \"#utility.yul\":733:734   */\n  0x00\n    /* \"#utility.yul\":726:814   */\n  mstore\n    /* \"#utility.yul\":833:837   */\n  0x41\n    /* \"#utility.yul\":830:831   */\n  0x04\n    /* \"#utility.yul\":823:838   */\n  mstore\n    /* \"#utility.yul\":857:861   */\n  0x24\n    /* \"#utility.yul\":854:855   */\n  0x00\n    /* \"#utility.yul\":847:862   */\n  revert\n    /* \"#utility.yul\":874:1155   */\ntag_21:\n    /* \"#utility.yul\":957:984   */\n  tag_39\n    /* \"#utility.yul\":979:983   */\n  dup3\n    /* \"#utility.yul\":957:984   */\n  tag_19\n  jump\t// in\ntag_39:\n    /* \"#utility.yul\":949:955   */\n  dup2\n    /* \"#utility.yul\":945:985   */\n  add\n    /* \"#utility.yul\":1087:1093   */\n  dup2\n    /* \"#utility.yul\":1075:1085   */\n  dup2\n    /* \"#utility.yul\":1072:1094   */\n  lt\n    /* \"#utility.yul\":1051:1069   */\n  0xffffffffffffffff\n    /* \"#utility.yul\":1039:1049   */\n  dup3\n    /* \"#utility.yul\":1036:1070   */\n  gt\n    /* \"#utility.yul\":1033:1095   */\n  or\n    /* \"#utility.yul\":1030:1118   */\n  iszero\n  tag_40\n  jumpi\n    /* \"#utility.yul\":1098:1116   */\n  tag_41\n  tag_20\n  jump\t// in\ntag_41:\n    /* \"#utility.yul\":1030:1118   */\ntag_40:\n    /* \"#utility.yul\":1138:1148   */\n  dup1\n    /* \"#utility.yul\":1134:1136   */\n  0x40\n    /* \"#utility.yul\":1127:1149   */\n  mstore\n    /* \"#utility.yul\":917:1155   */\n  pop\n    /* \"#utility.yul\":874:1155   */\n  pop\n  pop\n  jump\t// out\n    /* \"#utility.yul\":1161:1290   */\ntag_22:\n    /* \"#utility.yul\":1195:1201   */\n  0x00\n    /* \"#utility.yul\":1222:1242   */\n  tag_43\n  tag_14\n  jump\t// in\ntag_43:\n    /* \"#utility.yul\":1212:1242   */\n  swap1\n  pop\n    /* \"#utility.yul\":1251:1284   */\n  tag_44\n    /* \"#utility.yul\":1279:1283   */\n  dup3\n    /* \"#utility.yul\":1271:1277   */\n  dup3\n    /* \"#utility.yul\":1251:1284   */\n  tag_21\n  jump\t// in\ntag_44:\n    /* \"#utility.yul\":1161:1290   */\n  swap2\n  swap1\n  pop\n  jump\t// out\n    /* \"#utility.yul\":1296:1604   */\ntag_23:\n    /* \"#utility.yul\":1358:1362   */\n  0x00\n    /* \"#utility.yul\":1448:1466   */\n  0xffffffffffffffff\n    /* \"#utility.yul\":1440:1446   */\n  dup3\n    /* \"#utility.yul\":1437:1467   */\n  gt\n    /* \"#utility.yul\":1434:1490   */\n  iszero\n  tag_46\n  jumpi\n    /* \"#utility.yul\":1470:1488   */\n  tag_47\n  tag_20\n  jump\t// in\ntag_47:\n    /* \"#utility.yul\":1434:1490   */\ntag_46:\n    /* \"#utility.yul\":1508:1537   */\n  tag_48\n    /* \"#utility.yul\":1530:1536   */\n  dup3\n    /* \"#utility.yul\":1508:1537   */\n  tag_19\n  jump\t// in\ntag_48:\n    /* \"#utility.yul\":1500:1537   */\n  swap1\n  pop\n    /* \"#utility.yul\":1592:1596   */\n  0x20\n    /* \"#utility.yul\":1586:1590   */\n  dup2\n    /* \"#utility.yul\":1582:1597   */\n  add\n    /* \"#utility.yul\":1574:1597   */\n  swap1\n  pop\n    /* \"#utility.yul\":1296:1604   */\n  swap2\n  swap1\n  pop\n  jump\t// out\n    /* \"#utility.yul\":1610:1917   */\ntag_24:\n    /* \"#utility.yul\":1678:1679   */\n  0x00\n    /* \"#utility.yul\":1688:1801   */\ntag_50:\n    /* \"#utility.yul\":1702:1708   */\n  dup4\n    /* \"#utility.yul\":1699:1700   */\n  dup2\n    /* \"#utility.yul\":1696:1709   */\n  lt\n    /* \"#utility.yul\":1688:1801   */\n  iszero\n  tag_52\n  jumpi\n    /* \"#utility.yul\":1787:1788   */\n  dup1\n    /* \"#utility.yul\":1782:1785   */\n  dup3\n    /* \"#utility.yul\":1778:1789   */\n  add\n    /* \"#utility.yul\":1772:1790   */\n  mload\n    /* \"#utility.yul\":1768:1769   */\n  dup2\n    /* \"#utility.yul\":1763:1766   */\n  dup5\n    /* \"#utility.yul\":1759:1770   */\n  add\n    /* \"#utility.yul\":1752:1791   */\n  mstore\n    /* \"#utility.yul\":1724:1726   */\n  0x20\n    /* \"#utility.yul\":1721:1722   */\n  dup2\n    /* \"#utility.yul\":1717:1727   */\n  add\n    /* \"#utility.yul\":1712:1727   */\n  swap1\n  pop\n    /* \"#utility.yul\":1688:1801   */\n  jump(tag_50)\ntag_52:\n    /* \"#utility.yul\":1819:1825   */\n  dup4\n    /* \"#utility.yul\":1816:1817   */\n  dup2\n    /* \"#utility.yul\":1813:1826   */\n  gt\n    /* \"#utility.yul\":1810:1911   */\n  iszero\n  tag_53\n  jumpi\n    /* \"#utility.yul\":1899:1900   */\n  0x00\n    /* \"#utility.yul\":1890:1896   */\n  dup5\n    /* \"#utility.yul\":1885:1888   */\n  dup5\n    /* \"#utility.yul\":1881:1897   */\n  add\n    /* \"#utility.yul\":1874:1901   */\n  mstore\n    /* \"#utility.yul\":1810:1911   */\ntag_53:\n    /* \"#utility.yul\":1659:1917   */\n  pop\n    /* \"#utility.yul\":1610:1917   */\n  pop\n  pop\n  pop\n  jump\t// out\n    /* \"#utility.yul\":1923:2344   */\ntag_25:\n    /* \"#utility.yul\":2012:2017   */\n  0x00\n    /* \"#utility.yul\":2037:2103   */\n  tag_55\n    /* \"#utility.yul\":2053:2102   */\n  tag_56\n    /* \"#utility.yul\":2095:2101   */\n  dup5\n    /* \"#utility.yul\":2053:2102   */\n  tag_23\n  jump\t// in\ntag_56:\n    /* \"#utility.yul\":2037:2103   */\n  tag_22\n  jump\t// in\ntag_55:\n    /* \"#utility.yul\":2028:2103   */\n  swap1\n  pop\n    /* \"#utility.yul\":2126:2132   */\n  dup3\n    /* \"#utility.yul\":2119:2124   */\n  dup2\n    /* \"#utility.yul\":2112:2133   */\n  mstore\n    /* \"#utility.yul\":2164:2168   */\n  0x20\n    /* \"#utility.yul\":2157:2162   */\n  dup2\n    /* \"#utility.yul\":2153:2169   */\n  add\n    /* \"#utility.yul\":2202:2205   */\n  dup5\n    /* \"#utility.yul\":2193:2199   */\n  dup5\n    /* \"#utility.yul\":2188:2191   */\n  dup5\n    /* \"#utility.yul\":2184:2200   */\n  add\n    /* \"#utility.yul\":2181:2206   */\n  gt\n    /* \"#utility.yul\":2178:2290   */\n  iszero\n  tag_57\n  jumpi\n    /* \"#utility.yul\":2209:2288   */\n  tag_58\n  tag_18\n  jump\t// in\ntag_58:\n    /* \"#utility.yul\":2178:2290   */\ntag_57:\n    /* \"#utility.yul\":2299:2338   */\n  tag_59\n    /* \"#utility.yul\":2331:2337   */\n  dup5\n    /* \"#utility.yul\":2326:2329   */\n  dup3\n    /* \"#utility.yul\":2321:2324   */\n  dup6\n    /* \"#utility.yul\":2299:2338   */\n  tag_24\n  jump\t// in\ntag_59:\n    /* \"#utility.yul\":2018:2344   */\n  pop\n    /* \"#utility.yul\":1923:2344   */\n  swap4\n  swap3\n  pop\n  pop\n  pop\n  jump\t// out\n    /* \"#utility.yul\":2364:2719   */\ntag_26:\n    /* \"#utility.yul\":2431:2436   */\n  0x00\n    /* \"#utility.yul\":2480:2483   */\n  dup3\n    /* \"#utility.yul\":2473:2477   */\n  0x1f\n    /* \"#utility.yul\":2465:2471   */\n  dup4\n    /* \"#utility.yul\":2461:2478   */\n  add\n    /* \"#utility.yul\":2457:2484   */\n  slt\n    /* \"#utility.yul\":2447:2569   */\n  tag_61\n  jumpi\n    /* \"#utility.yul\":2488:2567   */\n  tag_62\n  tag_17\n  jump\t// in\ntag_62:\n    /* \"#utility.yul\":2447:2569   */\ntag_61:\n    /* \"#utility.yul\":2598:2604   */\n  dup2\n    /* \"#utility.yul\":2592:2605   */\n  mload\n    /* \"#utility.yul\":2623:2713   */\n  tag_63\n    /* \"#utility.yul\":2709:2712   */\n  dup5\n    /* \"#utility.yul\":2701:2707   */\n  dup3\n    /* \"#utility.yul\":2694:2698   */\n  0x20\n    /* \"#utility.yul\":2686:2692   */\n  dup7\n    /* \"#utility.yul\":2682:2699   */\n  add\n    /* \"#utility.yul\":2623:2713   */\n  tag_25\n  jump\t// in\ntag_63:\n    /* \"#utility.yul\":2614:2713   */\n  swap2\n  pop\n    /* \"#utility.yul\":2437:2719   */\n  pop\n    /* \"#utility.yul\":2364:2719   */\n  swap3\n  swap2\n  pop\n  pop\n  jump\t// out\n    /* \"#utility.yul\":2725:3249   */\ntag_3:\n    /* \"#utility.yul\":2805:2811   */\n  0x00\n    /* \"#utility.yul\":2854:2856   */\n  0x20\n    /* \"#utility.yul\":2842:2851   */\n  dup3\n    /* \"#utility.yul\":2833:2840   */\n  dup5\n    /* \"#utility.yul\":2829:2852   */\n  sub\n    /* \"#utility.yul\":2825:2857   */\n  slt\n    /* \"#utility.yul\":2822:2941   */\n  iszero\n  tag_65\n  jumpi\n    /* \"#utility.yul\":2860:2939   */\n  tag_66\n  tag_15\n  jump\t// in\ntag_66:\n    /* \"#utility.yul\":2822:2941   */\ntag_65:\n    /* \"#utility.yul\":3001:3002   */\n  0x00\n    /* \"#utility.yul\":2990:2999   */\n  dup3\n    /* \"#utility.yul\":2986:3003   */\n  add\n    /* \"#utility.yul\":2980:3004   */\n  mload\n    /* \"#utility.yul\":3031:3049   */\n  0xffffffffffffffff\n    /* \"#utility.yul\":3023:3029   */\n  dup2\n    /* \"#utility.yul\":3020:3050   */\n  gt\n    /* \"#utility.yul\":3017:3134   */\n  iszero\n  tag_67\n  jumpi\n    /* \"#utility.yul\":3053:3132   */\n  tag_68\n  tag_16\n  jump\t// in\ntag_68:\n    /* \"#utility.yul\":3017:3134   */\ntag_67:\n    /* \"#utility.yul\":3158:3232   */\n  tag_69\n    /* \"#utility.yul\":3224:3231   */\n  dup5\n    /* \"#utility.yul\":3215:3221   */\n  dup3\n    /* \"#utility.yul\":3204:3213   */\n  dup6\n    /* \"#utility.yul\":3200:3222   */\n  add\n    /* \"#utility.yul\":3158:3232   */\n  tag_26\n  jump\t// in\ntag_69:\n    /* \"#utility.yul\":3148:3232   */\n  swap2\n  pop\n    /* \"#utility.yul\":2951:3242   */\n  pop\n    /* \"#utility.yul\":2725:3249   */\n  swap3\n  swap2\n  pop\n  pop\n  jump\t// out\n    /* \"#utility.yul\":3255:3354   */\ntag_27:\n    /* \"#utility.yul\":3307:3313   */\n  0x00\n    /* \"#utility.yul\":3341:3346   */\n  dup2\n    /* \"#utility.yul\":3335:3347   */\n  mload\n    /* \"#utility.yul\":3325:3347   */\n  swap1\n  pop\n    /* \"#utility.yul\":3255:3354   */\n  swap2\n  swap1\n  pop\n  jump\t// out\n    /* \"#utility.yul\":3360:3529   */\ntag_28:\n    /* \"#utility.yul\":3444:3455   */\n  0x00\n    /* \"#utility.yul\":3478:3484   */\n  dup3\n    /* \"#utility.yul\":3473:3476   */\n  dup3\n    /* \"#utility.yul\":3466:3485   */\n  mstore\n    /* \"#utility.yul\":3518:3522   */\n  0x20\n    /* \"#utility.yul\":3513:3516   */\n  dup3\n    /* \"#utility.yul\":3509:3523   */\n  add\n    /* \"#utility.yul\":3494:3523   */\n  swap1\n  pop\n    /* \"#utility.yul\":3360:3529   */\n  swap3\n  swap2\n  pop\n  pop\n  jump\t// out\n    /* \"#utility.yul\":3535:3899   */\ntag_29:\n    /* \"#utility.yul\":3623:3626   */\n  0x00\n    /* \"#utility.yul\":3651:3690   */\n  tag_73\n    /* \"#utility.yul\":3684:3689   */\n  dup3\n    /* \"#utility.yul\":3651:3690   */\n  tag_27\n  jump\t// in\ntag_73:\n    /* \"#utility.yul\":3706:3777   */\n  tag_74\n    /* \"#utility.yul\":3770:3776   */\n  dup2\n    /* \"#utility.yul\":3765:3768   */\n  dup6\n    /* \"#utility.yul\":3706:3777   */\n  tag_28\n  jump\t// in\ntag_74:\n    /* \"#utility.yul\":3699:3777   */\n  swap4\n  pop\n    /* \"#utility.yul\":3786:3838   */\n  tag_75\n    /* \"#utility.yul\":3831:3837   */\n  dup2\n    /* \"#utility.yul\":3826:3829   */\n  dup6\n    /* \"#utility.yul\":3819:3823   */\n  0x20\n    /* \"#utility.yul\":3812:3817   */\n  dup7\n    /* \"#utility.yul\":3808:3824   */\n  add\n    /* \"#utility.yul\":3786:3838   */\n  tag_24\n  jump\t// in\ntag_75:\n    /* \"#utility.yul\":3863:3892   */\n  tag_76\n    /* \"#utility.yul\":3885:3891   */\n  dup2\n    /* \"#utility.yul\":3863:3892   */\n  tag_19\n  jump\t// in\ntag_76:\n    /* \"#utility.yul\":3858:3861   */\n  dup5\n    /* \"#utility.yul\":3854:3893   */\n  add\n    /* \"#utility.yul\":3847:3893   */\n  swap2\n  pop\n    /* \"#utility.yul\":3627:3899   */\n  pop\n    /* \"#utility.yul\":3535:3899   */\n  swap3\n  swap2\n  pop\n  pop\n  jump\t// out\n    /* \"#utility.yul\":3905:4218   */\ntag_11:\n    /* \"#utility.yul\":4018:4022   */\n  0x00\n    /* \"#utility.yul\":4056:4058   */\n  0x20\n    /* \"#utility.yul\":4045:4054   */\n  dup3\n    /* \"#utility.yul\":4041:4059   */\n  add\n    /* \"#utility.yul\":4033:4059   */\n  swap1\n  pop\n    /* \"#utility.yul\":4105:4114   */\n  dup2\n    /* \"#utility.yul\":4099:4103   */\n  dup2\n    /* \"#utility.yul\":4095:4115   */\n  sub\n    /* \"#utility.yul\":4091:4092   */\n  0x00\n    /* \"#utility.yul\":4080:4089   */\n  dup4\n    /* \"#utility.yul\":4076:4093   */\n  add\n    /* \"#utility.yul\":4069:4116   */\n  mstore\n    /* \"#utility.yul\":4133:4211   */\n  tag_78\n    /* \"#utility.yul\":4206:4210   */\n  dup2\n    /* \"#utility.yul\":4197:4203   */\n  dup5\n    /* \"#utility.yul\":4133:4211   */\n  tag_29\n  jump\t// in\ntag_78:\n    /* \"#utility.yul\":4125:4211   */\n  swap1\n  pop\n    /* \"#utility.yul\":3905:4218   */\n  swap3\n  swap2\n  pop\n  pop\n  jump\t// out\n    /* \"Contracts/Inheritance.sol\":559:983  contract myContract is Ownable {... */\ntag_13:\n  dataSize(sub_0)\n  dup1\n  dataOffset(sub_0)\n  0x00\n  codecopy\n  0x00\n  return\nstop\n\nsub_0: assembly {\n        /* \"Contracts/Inheritance.sol\":559:983  contract myContract is Ownable {... */\n      mstore(0x40, 0x80)\n      callvalue\n      dup1\n      iszero\n      tag_1\n      jumpi\n      0x00\n      dup1\n      revert\n    tag_1:\n      pop\n      jumpi(tag_2, lt(calldatasize, 0x04))\n      shr(0xe0, calldataload(0x00))\n      dup1\n      0x5b9fdc30\n      eq\n      tag_3\n      jumpi\n    tag_2:\n      0x00\n      dup1\n      revert\n        /* \"Contracts/Inheritance.sol\":802:980  function getSecret() public view onlyOwner returns(string memory) {... */\n    tag_3:\n      tag_4\n      tag_5\n      jump\t// in\n    tag_4:\n      mload(0x40)\n      tag_6\n      swap2\n      swap1\n      tag_7\n      jump\t// in\n    tag_6:\n      mload(0x40)\n      dup1\n      swap2\n      sub\n      swap1\n      return\n    tag_5:\n        /* \"Contracts/Inheritance.sol\":853:866  string memory */\n      0x60\n        /* \"Contracts/Inheritance.sol\":232:237  owner */\n      0x00\n      dup1\n      sload\n      swap1\n      0x0100\n      exp\n      swap1\n      div\n      0xffffffffffffffffffffffffffffffffffffffff\n      and\n        /* \"Contracts/Inheritance.sol\":218:237  msg.sender == owner */\n      0xffffffffffffffffffffffffffffffffffffffff\n      and\n        /* \"Contracts/Inheritance.sol\":218:228  msg.sender */\n      caller\n        /* \"Contracts/Inheritance.sol\":218:237  msg.sender == owner */\n      0xffffffffffffffffffffffffffffffffffffffff\n      and\n      eq\n        /* \"Contracts/Inheritance.sol\":210:255  require(msg.sender == owner, \"must be owner\") */\n      tag_9\n      jumpi\n      mload(0x40)\n      0x08c379a000000000000000000000000000000000000000000000000000000000\n      dup2\n      mstore\n      0x04\n      add\n      tag_10\n      swap1\n      tag_11\n      jump\t// in\n    tag_10:\n      mload(0x40)\n      dup1\n      swap2\n      sub\n      swap1\n      revert\n    tag_9:\n        /* \"Contracts/Inheritance.sol\":879:903  SecretVault _secretVault */\n      0x00\n        /* \"Contracts/Inheritance.sol\":918:929  secretVault */\n      0x01\n      0x00\n      swap1\n      sload\n      swap1\n      0x0100\n      exp\n      swap1\n      div\n      0xffffffffffffffffffffffffffffffffffffffff\n      and\n        /* \"Contracts/Inheritance.sol\":879:930  SecretVault _secretVault = SecretVault(secretVault) */\n      swap1\n      pop\n        /* \"Contracts/Inheritance.sol\":948:960  _secretVault */\n      dup1\n        /* \"Contracts/Inheritance.sol\":948:970  _secretVault.getSecret */\n      0xffffffffffffffffffffffffffffffffffffffff\n      and\n      0x5b9fdc30\n        /* \"Contracts/Inheritance.sol\":948:972  _secretVault.getSecret() */\n      mload(0x40)\n      dup2\n      0xffffffff\n      and\n      0xe0\n      shl\n      dup2\n      mstore\n      0x04\n      add\n      0x00\n      mload(0x40)\n      dup1\n      dup4\n      sub\n      dup2\n      dup7\n      gas\n      staticcall\n      iszero\n      dup1\n      iszero\n      tag_14\n      jumpi\n      returndatasize\n      0x00\n      dup1\n      returndatacopy\n      revert(0x00, returndatasize)\n    tag_14:\n      pop\n      pop\n      pop\n      pop\n      mload(0x40)\n      returndatasize\n      0x00\n      dup3\n      returndatacopy\n      returndatasize\n      not(0x1f)\n      0x1f\n      dup3\n      add\n      and\n      dup3\n      add\n      dup1\n      0x40\n      mstore\n      pop\n      dup2\n      add\n      swap1\n      tag_15\n      swap2\n      swap1\n      tag_16\n      jump\t// in\n    tag_15:\n        /* \"Contracts/Inheritance.sol\":941:972  return _secretVault.getSecret() */\n      swap2\n      pop\n      pop\n        /* \"Contracts/Inheritance.sol\":802:980  function getSecret() public view onlyOwner returns(string memory) {... */\n      swap1\n      jump\t// out\n        /* \"#utility.yul\":7:106   */\n    tag_17:\n        /* \"#utility.yul\":59:65   */\n      0x00\n        /* \"#utility.yul\":93:98   */\n      dup2\n        /* \"#utility.yul\":87:99   */\n      mload\n        /* \"#utility.yul\":77:99   */\n      swap1\n      pop\n        /* \"#utility.yul\":7:106   */\n      swap2\n      swap1\n      pop\n      jump\t// out\n        /* \"#utility.yul\":112:281   */\n    tag_18:\n        /* \"#utility.yul\":196:207   */\n      0x00\n        /* \"#utility.yul\":230:236   */\n      dup3\n        /* \"#utility.yul\":225:228   */\n      dup3\n        /* \"#utility.yul\":218:237   */\n      mstore\n        /* \"#utility.yul\":270:274   */\n      0x20\n        /* \"#utility.yul\":265:268   */\n      dup3\n        /* \"#utility.yul\":261:275   */\n      add\n        /* \"#utility.yul\":246:275   */\n      swap1\n      pop\n        /* \"#utility.yul\":112:281   */\n      swap3\n      swap2\n      pop\n      pop\n      jump\t// out\n        /* \"#utility.yul\":287:594   */\n    tag_19:\n        /* \"#utility.yul\":355:356   */\n      0x00\n        /* \"#utility.yul\":365:478   */\n    tag_39:\n        /* \"#utility.yul\":379:385   */\n      dup4\n        /* \"#utility.yul\":376:377   */\n      dup2\n        /* \"#utility.yul\":373:386   */\n      lt\n        /* \"#utility.yul\":365:478   */\n      iszero\n      tag_41\n      jumpi\n        /* \"#utility.yul\":464:465   */\n      dup1\n        /* \"#utility.yul\":459:462   */\n      dup3\n        /* \"#utility.yul\":455:466   */\n      add\n        /* \"#utility.yul\":449:467   */\n      mload\n        /* \"#utility.yul\":445:446   */\n      dup2\n        /* \"#utility.yul\":440:443   */\n      dup5\n        /* \"#utility.yul\":436:447   */\n      add\n        /* \"#utility.yul\":429:468   */\n      mstore\n        /* \"#utility.yul\":401:403   */\n      0x20\n        /* \"#utility.yul\":398:399   */\n      dup2\n        /* \"#utility.yul\":394:404   */\n      add\n        /* \"#utility.yul\":389:404   */\n      swap1\n      pop\n        /* \"#utility.yul\":365:478   */\n      jump(tag_39)\n    tag_41:\n        /* \"#utility.yul\":496:502   */\n      dup4\n        /* \"#utility.yul\":493:494   */\n      dup2\n        /* \"#utility.yul\":490:503   */\n      gt\n        /* \"#utility.yul\":487:588   */\n      iszero\n      tag_42\n      jumpi\n        /* \"#utility.yul\":576:577   */\n      0x00\n        /* \"#utility.yul\":567:573   */\n      dup5\n        /* \"#utility.yul\":562:565   */\n      dup5\n        /* \"#utility.yul\":558:574   */\n      add\n        /* \"#utility.yul\":551:578   */\n      mstore\n        /* \"#utility.yul\":487:588   */\n    tag_42:\n        /* \"#utility.yul\":336:594   */\n      pop\n        /* \"#utility.yul\":287:594   */\n      pop\n      pop\n      pop\n      jump\t// out\n        /* \"#utility.yul\":600:702   */\n    tag_20:\n        /* \"#utility.yul\":641:647   */\n      0x00\n        /* \"#utility.yul\":692:694   */\n      0x1f\n        /* \"#utility.yul\":688:695   */\n      not\n        /* \"#utility.yul\":683:685   */\n      0x1f\n        /* \"#utility.yul\":676:681   */\n      dup4\n        /* \"#utility.yul\":672:686   */\n      add\n        /* \"#utility.yul\":668:696   */\n      and\n        /* \"#utility.yul\":658:696   */\n      swap1\n      pop\n        /* \"#utility.yul\":600:702   */\n      swap2\n      swap1\n      pop\n      jump\t// out\n        /* \"#utility.yul\":708:1072   */\n    tag_21:\n        /* \"#utility.yul\":796:799   */\n      0x00\n        /* \"#utility.yul\":824:863   */\n      tag_45\n        /* \"#utility.yul\":857:862   */\n      dup3\n        /* \"#utility.yul\":824:863   */\n      tag_17\n      jump\t// in\n    tag_45:\n        /* \"#utility.yul\":879:950   */\n      tag_46\n        /* \"#utility.yul\":943:949   */\n      dup2\n        /* \"#utility.yul\":938:941   */\n      dup6\n        /* \"#utility.yul\":879:950   */\n      tag_18\n      jump\t// in\n    tag_46:\n        /* \"#utility.yul\":872:950   */\n      swap4\n      pop\n        /* \"#utility.yul\":959:1011   */\n      tag_47\n        /* \"#utility.yul\":1004:1010   */\n      dup2\n        /* \"#utility.yul\":999:1002   */\n      dup6\n        /* \"#utility.yul\":992:996   */\n      0x20\n        /* \"#utility.yul\":985:990   */\n      dup7\n        /* \"#utility.yul\":981:997   */\n      add\n        /* \"#utility.yul\":959:1011   */\n      tag_19\n      jump\t// in\n    tag_47:\n        /* \"#utility.yul\":1036:1065   */\n      tag_48\n        /* \"#utility.yul\":1058:1064   */\n      dup2\n        /* \"#utility.yul\":1036:1065   */\n      tag_20\n      jump\t// in\n    tag_48:\n        /* \"#utility.yul\":1031:1034   */\n      dup5\n        /* \"#utility.yul\":1027:1066   */\n      add\n        /* \"#utility.yul\":1020:1066   */\n      swap2\n      pop\n        /* \"#utility.yul\":800:1072   */\n      pop\n        /* \"#utility.yul\":708:1072   */\n      swap3\n      swap2\n      pop\n      pop\n      jump\t// out\n        /* \"#utility.yul\":1078:1391   */\n    tag_7:\n        /* \"#utility.yul\":1191:1195   */\n      0x00\n        /* \"#utility.yul\":1229:1231   */\n      0x20\n        /* \"#utility.yul\":1218:1227   */\n      dup3\n        /* \"#utility.yul\":1214:1232   */\n      add\n        /* \"#utility.yul\":1206:1232   */\n      swap1\n      pop\n        /* \"#utility.yul\":1278:1287   */\n      dup2\n        /* \"#utility.yul\":1272:1276   */\n      dup2\n        /* \"#utility.yul\":1268:1288   */\n      sub\n        /* \"#utility.yul\":1264:1265   */\n      0x00\n        /* \"#utility.yul\":1253:1262   */\n      dup4\n        /* \"#utility.yul\":1249:1266   */\n      add\n        /* \"#utility.yul\":1242:1289   */\n      mstore\n        /* \"#utility.yul\":1306:1384   */\n      tag_50\n        /* \"#utility.yul\":1379:1383   */\n      dup2\n        /* \"#utility.yul\":1370:1376   */\n      dup5\n        /* \"#utility.yul\":1306:1384   */\n      tag_21\n      jump\t// in\n    tag_50:\n        /* \"#utility.yul\":1298:1384   */\n      swap1\n      pop\n        /* \"#utility.yul\":1078:1391   */\n      swap3\n      swap2\n      pop\n      pop\n      jump\t// out\n        /* \"#utility.yul\":1397:1560   */\n    tag_22:\n        /* \"#utility.yul\":1537:1552   */\n      0x6d757374206265206f776e657200000000000000000000000000000000000000\n        /* \"#utility.yul\":1533:1534   */\n      0x00\n        /* \"#utility.yul\":1525:1531   */\n      dup3\n        /* \"#utility.yul\":1521:1535   */\n      add\n        /* \"#utility.yul\":1514:1553   */\n      mstore\n        /* \"#utility.yul\":1397:1560   */\n      pop\n      jump\t// out\n        /* \"#utility.yul\":1566:1932   */\n    tag_23:\n        /* \"#utility.yul\":1708:1711   */\n      0x00\n        /* \"#utility.yul\":1729:1796   */\n      tag_53\n        /* \"#utility.yul\":1793:1795   */\n      0x0d\n        /* \"#utility.yul\":1788:1791   */\n      dup4\n        /* \"#utility.yul\":1729:1796   */\n      tag_18\n      jump\t// in\n    tag_53:\n        /* \"#utility.yul\":1722:1796   */\n      swap2\n      pop\n        /* \"#utility.yul\":1805:1898   */\n      tag_54\n        /* \"#utility.yul\":1894:1897   */\n      dup3\n        /* \"#utility.yul\":1805:1898   */\n      tag_22\n      jump\t// in\n    tag_54:\n        /* \"#utility.yul\":1923:1925   */\n      0x20\n        /* \"#utility.yul\":1918:1921   */\n      dup3\n        /* \"#utility.yul\":1914:1926   */\n      add\n        /* \"#utility.yul\":1907:1926   */\n      swap1\n      pop\n        /* \"#utility.yul\":1566:1932   */\n      swap2\n      swap1\n      pop\n      jump\t// out\n        /* \"#utility.yul\":1938:2357   */\n    tag_11:\n        /* \"#utility.yul\":2104:2108   */\n      0x00\n        /* \"#utility.yul\":2142:2144   */\n      0x20\n        /* \"#utility.yul\":2131:2140   */\n      dup3\n        /* \"#utility.yul\":2127:2145   */\n      add\n        /* \"#utility.yul\":2119:2145   */\n      swap1\n      pop\n        /* \"#utility.yul\":2191:2200   */\n      dup2\n        /* \"#utility.yul\":2185:2189   */\n      dup2\n        /* \"#utility.yul\":2181:2201   */\n      sub\n        /* \"#utility.yul\":2177:2178   */\n      0x00\n        /* \"#utility.yul\":2166:2175   */\n      dup4\n        /* \"#utility.yul\":2162:2179   */\n      add\n        /* \"#utility.yul\":2155:2202   */\n      mstore\n        /* \"#utility.yul\":2219:2350   */\n      tag_56\n        /* \"#utility.yul\":2345:2349   */\n      dup2\n        /* \"#utility.yul\":2219:2350   */\n      tag_23\n      jump\t// in\n    tag_56:\n        /* \"#utility.yul\":2211:2350   */\n      swap1\n      pop\n        /* \"#utility.yul\":1938:2357   */\n      swap2\n      swap1\n      pop\n      jump\t// out\n        /* \"#utility.yul\":2363:2438   */\n    tag_24:\n        /* \"#utility.yul\":2396:2402   */\n      0x00\n        /* \"#utility.yul\":2429:2431   */\n      0x40\n        /* \"#utility.yul\":2423:2432   */\n      mload\n        /* \"#utility.yul\":2413:2432   */\n      swap1\n      pop\n        /* \"#utility.yul\":2363:2438   */\n      swap1\n      jump\t// out\n        /* \"#utility.yul\":2444:2561   */\n    tag_25:\n        /* \"#utility.yul\":2553:2554   */\n      0x00\n        /* \"#utility.yul\":2550:2551   */\n      dup1\n        /* \"#utility.yul\":2543:2555   */\n      revert\n        /* \"#utility.yul\":2567:2684   */\n    tag_26:\n        /* \"#utility.yul\":2676:2677   */\n      0x00\n        /* \"#utility.yul\":2673:2674   */\n      dup1\n        /* \"#utility.yul\":2666:2678   */\n      revert\n        /* \"#utility.yul\":2690:2807   */\n    tag_27:\n        /* \"#utility.yul\":2799:2800   */\n      0x00\n        /* \"#utility.yul\":2796:2797   */\n      dup1\n        /* \"#utility.yul\":2789:2801   */\n      revert\n        /* \"#utility.yul\":2813:2930   */\n    tag_28:\n        /* \"#utility.yul\":2922:2923   */\n      0x00\n        /* \"#utility.yul\":2919:2920   */\n      dup1\n        /* \"#utility.yul\":2912:2924   */\n      revert\n        /* \"#utility.yul\":2936:3116   */\n    tag_29:\n        /* \"#utility.yul\":2984:3061   */\n      0x4e487b7100000000000000000000000000000000000000000000000000000000\n        /* \"#utility.yul\":2981:2982   */\n      0x00\n        /* \"#utility.yul\":2974:3062   */\n      mstore\n        /* \"#utility.yul\":3081:3085   */\n      0x41\n        /* \"#utility.yul\":3078:3079   */\n      0x04\n        /* \"#utility.yul\":3071:3086   */\n      mstore\n        /* \"#utility.yul\":3105:3109   */\n      0x24\n        /* \"#utility.yul\":3102:3103   */\n      0x00\n        /* \"#utility.yul\":3095:3110   */\n      revert\n        /* \"#utility.yul\":3122:3403   */\n    tag_30:\n        /* \"#utility.yul\":3205:3232   */\n      tag_64\n        /* \"#utility.yul\":3227:3231   */\n      dup3\n        /* \"#utility.yul\":3205:3232   */\n      tag_20\n      jump\t// in\n    tag_64:\n        /* \"#utility.yul\":3197:3203   */\n      dup2\n        /* \"#utility.yul\":3193:3233   */\n      add\n        /* \"#utility.yul\":3335:3341   */\n      dup2\n        /* \"#utility.yul\":3323:3333   */\n      dup2\n        /* \"#utility.yul\":3320:3342   */\n      lt\n        /* \"#utility.yul\":3299:3317   */\n      0xffffffffffffffff\n        /* \"#utility.yul\":3287:3297   */\n      dup3\n        /* \"#utility.yul\":3284:3318   */\n      gt\n        /* \"#utility.yul\":3281:3343   */\n      or\n        /* \"#utility.yul\":3278:3366   */\n      iszero\n      tag_65\n      jumpi\n        /* \"#utility.yul\":3346:3364   */\n      tag_66\n      tag_29\n      jump\t// in\n    tag_66:\n        /* \"#utility.yul\":3278:3366   */\n    tag_65:\n        /* \"#utility.yul\":3386:3396   */\n      dup1\n        /* \"#utility.yul\":3382:3384   */\n      0x40\n        /* \"#utility.yul\":3375:3397   */\n      mstore\n        /* \"#utility.yul\":3165:3403   */\n      pop\n        /* \"#utility.yul\":3122:3403   */\n      pop\n      pop\n      jump\t// out\n        /* \"#utility.yul\":3409:3538   */\n    tag_31:\n        /* \"#utility.yul\":3443:3449   */\n      0x00\n        /* \"#utility.yul\":3470:3490   */\n      tag_68\n      tag_24\n      jump\t// in\n    tag_68:\n        /* \"#utility.yul\":3460:3490   */\n      swap1\n      pop\n        /* \"#utility.yul\":3499:3532   */\n      tag_69\n        /* \"#utility.yul\":3527:3531   */\n      dup3\n        /* \"#utility.yul\":3519:3525   */\n      dup3\n        /* \"#utility.yul\":3499:3532   */\n      tag_30\n      jump\t// in\n    tag_69:\n        /* \"#utility.yul\":3409:3538   */\n      swap2\n      swap1\n      pop\n      jump\t// out\n        /* \"#utility.yul\":3544:3852   */\n    tag_32:\n        /* \"#utility.yul\":3606:3610   */\n      0x00\n        /* \"#utility.yul\":3696:3714   */\n      0xffffffffffffffff\n        /* \"#utility.yul\":3688:3694   */\n      dup3\n        /* \"#utility.yul\":3685:3715   */\n      gt\n        /* \"#utility.yul\":3682:3738   */\n      iszero\n      tag_71\n      jumpi\n        /* \"#utility.yul\":3718:3736   */\n      tag_72\n      tag_29\n      jump\t// in\n    tag_72:\n        /* \"#utility.yul\":3682:3738   */\n    tag_71:\n        /* \"#utility.yul\":3756:3785   */\n      tag_73\n        /* \"#utility.yul\":3778:3784   */\n      dup3\n        /* \"#utility.yul\":3756:3785   */\n      tag_20\n      jump\t// in\n    tag_73:\n        /* \"#utility.yul\":3748:3785   */\n      swap1\n      pop\n        /* \"#utility.yul\":3840:3844   */\n      0x20\n        /* \"#utility.yul\":3834:3838   */\n      dup2\n        /* \"#utility.yul\":3830:3845   */\n      add\n        /* \"#utility.yul\":3822:3845   */\n      swap1\n      pop\n        /* \"#utility.yul\":3544:3852   */\n      swap2\n      swap1\n      pop\n      jump\t// out\n        /* \"#utility.yul\":3858:4279   */\n    tag_33:\n        /* \"#utility.yul\":3947:3952   */\n      0x00\n        /* \"#utility.yul\":3972:4038   */\n      tag_75\n        /* \"#utility.yul\":3988:4037   */\n      tag_76\n        /* \"#utility.yul\":4030:4036   */\n      dup5\n        /* \"#utility.yul\":3988:4037   */\n      tag_32\n      jump\t// in\n    tag_76:\n        /* \"#utility.yul\":3972:4038   */\n      tag_31\n      jump\t// in\n    tag_75:\n        /* \"#utility.yul\":3963:4038   */\n      swap1\n      pop\n        /* \"#utility.yul\":4061:4067   */\n      dup3\n        /* \"#utility.yul\":4054:4059   */\n      dup2\n        /* \"#utility.yul\":4047:4068   */\n      mstore\n        /* \"#utility.yul\":4099:4103   */\n      0x20\n        /* \"#utility.yul\":4092:4097   */\n      dup2\n        /* \"#utility.yul\":4088:4104   */\n      add\n        /* \"#utility.yul\":4137:4140   */\n      dup5\n        /* \"#utility.yul\":4128:4134   */\n      dup5\n        /* \"#utility.yul\":4123:4126   */\n      dup5\n        /* \"#utility.yul\":4119:4135   */\n      add\n        /* \"#utility.yul\":4116:4141   */\n      gt\n        /* \"#utility.yul\":4113:4225   */\n      iszero\n      tag_77\n      jumpi\n        /* \"#utility.yul\":4144:4223   */\n      tag_78\n      tag_28\n      jump\t// in\n    tag_78:\n        /* \"#utility.yul\":4113:4225   */\n    tag_77:\n        /* \"#utility.yul\":4234:4273   */\n      tag_79\n        /* \"#utility.yul\":4266:4272   */\n      dup5\n        /* \"#utility.yul\":4261:4264   */\n      dup3\n        /* \"#utility.yul\":4256:4259   */\n      dup6\n        /* \"#utility.yul\":4234:4273   */\n      tag_19\n      jump\t// in\n    tag_79:\n        /* \"#utility.yul\":3953:4279   */\n      pop\n        /* \"#utility.yul\":3858:4279   */\n      swap4\n      swap3\n      pop\n      pop\n      pop\n      jump\t// out\n        /* \"#utility.yul\":4299:4654   */\n    tag_34:\n        /* \"#utility.yul\":4366:4371   */\n      0x00\n        /* \"#utility.yul\":4415:4418   */\n      dup3\n        /* \"#utility.yul\":4408:4412   */\n      0x1f\n        /* \"#utility.yul\":4400:4406   */\n      dup4\n        /* \"#utility.yul\":4396:4413   */\n      add\n        /* \"#utility.yul\":4392:4419   */\n      slt\n        /* \"#utility.yul\":4382:4504   */\n      tag_81\n      jumpi\n        /* \"#utility.yul\":4423:4502   */\n      tag_82\n      tag_27\n      jump\t// in\n    tag_82:\n        /* \"#utility.yul\":4382:4504   */\n    tag_81:\n        /* \"#utility.yul\":4533:4539   */\n      dup2\n        /* \"#utility.yul\":4527:4540   */\n      mload\n        /* \"#utility.yul\":4558:4648   */\n      tag_83\n        /* \"#utility.yul\":4644:4647   */\n      dup5\n        /* \"#utility.yul\":4636:4642   */\n      dup3\n        /* \"#utility.yul\":4629:4633   */\n      0x20\n        /* \"#utility.yul\":4621:4627   */\n      dup7\n        /* \"#utility.yul\":4617:4634   */\n      add\n        /* \"#utility.yul\":4558:4648   */\n      tag_33\n      jump\t// in\n    tag_83:\n        /* \"#utility.yul\":4549:4648   */\n      swap2\n      pop\n        /* \"#utility.yul\":4372:4654   */\n      pop\n        /* \"#utility.yul\":4299:4654   */\n      swap3\n      swap2\n      pop\n      pop\n      jump\t// out\n        /* \"#utility.yul\":4660:5184   */\n    tag_16:\n        /* \"#utility.yul\":4740:4746   */\n      0x00\n        /* \"#utility.yul\":4789:4791   */\n      0x20\n        /* \"#utility.yul\":4777:4786   */\n      dup3\n        /* \"#utility.yul\":4768:4775   */\n      dup5\n        /* \"#utility.yul\":4764:4787   */\n      sub\n        /* \"#utility.yul\":4760:4792   */\n      slt\n        /* \"#utility.yul\":4757:4876   */\n      iszero\n      tag_85\n      jumpi\n        /* \"#utility.yul\":4795:4874   */\n      tag_86\n      tag_25\n      jump\t// in\n    tag_86:\n        /* \"#utility.yul\":4757:4876   */\n    tag_85:\n        /* \"#utility.yul\":4936:4937   */\n      0x00\n        /* \"#utility.yul\":4925:4934   */\n      dup3\n        /* \"#utility.yul\":4921:4938   */\n      add\n        /* \"#utility.yul\":4915:4939   */\n      mload\n        /* \"#utility.yul\":4966:4984   */\n      0xffffffffffffffff\n        /* \"#utility.yul\":4958:4964   */\n      dup2\n        /* \"#utility.yul\":4955:4985   */\n      gt\n        /* \"#utility.yul\":4952:5069   */\n      iszero\n      tag_87\n      jumpi\n        /* \"#utility.yul\":4988:5067   */\n      tag_88\n      tag_26\n      jump\t// in\n    tag_88:\n        /* \"#utility.yul\":4952:5069   */\n    tag_87:\n        /* \"#utility.yul\":5093:5167   */\n      tag_89\n        /* \"#utility.yul\":5159:5166   */\n      dup5\n        /* \"#utility.yul\":5150:5156   */\n      dup3\n        /* \"#utility.yul\":5139:5148   */\n      dup6\n        /* \"#utility.yul\":5135:5157   */\n      add\n        /* \"#utility.yul\":5093:5167   */\n      tag_34\n      jump\t// in\n    tag_89:\n        /* \"#utility.yul\":5083:5167   */\n      swap2\n      pop\n        /* \"#utility.yul\":4886:5177   */\n      pop\n        /* \"#utility.yul\":4660:5184   */\n      swap3\n      swap2\n      pop\n      pop\n      jump\t// out\n\n    auxdata: 0xa264697066735822122055b75dc98bfe9284c7899099936cd741350bb7177f5c9cbd723cda11ab41e19d64736f6c634300080c0033\n}\n\nsub_1: assembly {\n        /* \"Contracts/Inheritance.sol\":288:508  contract SecretVault {... */\n      mstore(0x40, 0x80)\n        /* \"Contracts/Inheritance.sol\":338:409  constructor (string memory _secret) {... */\n      callvalue\n      dup1\n      iszero\n      tag_1\n      jumpi\n      0x00\n      dup1\n      revert\n    tag_1:\n      pop\n      mload(0x40)\n      sub(codesize, bytecodeSize)\n      dup1\n      bytecodeSize\n      dup4\n      codecopy\n      dup2\n      dup2\n      add\n      0x40\n      mstore\n      dup2\n      add\n      swap1\n      tag_2\n      swap2\n      swap1\n      tag_3\n      jump\t// in\n    tag_2:\n        /* \"Contracts/Inheritance.sol\":394:401  _secret */\n      dup1\n        /* \"Contracts/Inheritance.sol\":385:391  secret */\n      0x00\n        /* \"Contracts/Inheritance.sol\":385:401  secret = _secret */\n      swap1\n      dup1\n      mload\n      swap1\n      0x20\n      add\n      swap1\n      tag_6\n      swap3\n      swap2\n      swap1\n      tag_7\n      jump\t// in\n    tag_6:\n      pop\n        /* \"Contracts/Inheritance.sol\":338:409  constructor (string memory _secret) {... */\n      pop\n        /* \"Contracts/Inheritance.sol\":288:508  contract SecretVault {... */\n      jump(tag_8)\n    tag_7:\n      dup3\n      dup1\n      sload\n      tag_9\n      swap1\n      tag_10\n      jump\t// in\n    tag_9:\n      swap1\n      0x00\n      mstore\n      keccak256(0x00, 0x20)\n      swap1\n      0x1f\n      add\n      0x20\n      swap1\n      div\n      dup2\n      add\n      swap3\n      dup3\n      tag_12\n      jumpi\n      0x00\n      dup6\n      sstore\n      jump(tag_11)\n    tag_12:\n      dup3\n      0x1f\n      lt\n      tag_13\n      jumpi\n      dup1\n      mload\n      not(0xff)\n      and\n      dup4\n      dup1\n      add\n      or\n      dup6\n      sstore\n      jump(tag_11)\n    tag_13:\n      dup3\n      dup1\n      add\n      0x01\n      add\n      dup6\n      sstore\n      dup3\n      iszero\n      tag_11\n      jumpi\n      swap2\n      dup3\n      add\n    tag_14:\n      dup3\n      dup2\n      gt\n      iszero\n      tag_15\n      jumpi\n      dup3\n      mload\n      dup3\n      sstore\n      swap2\n      0x20\n      add\n      swap2\n      swap1\n      0x01\n      add\n      swap1\n      jump(tag_14)\n    tag_15:\n    tag_11:\n      pop\n      swap1\n      pop\n      tag_16\n      swap2\n      swap1\n      tag_17\n      jump\t// in\n    tag_16:\n      pop\n      swap1\n      jump\t// out\n    tag_17:\n    tag_18:\n      dup1\n      dup3\n      gt\n      iszero\n      tag_19\n      jumpi\n      0x00\n      dup2\n      0x00\n      swap1\n      sstore\n      pop\n      0x01\n      add\n      jump(tag_18)\n    tag_19:\n      pop\n      swap1\n      jump\t// out\n        /* \"#utility.yul\":7:82   */\n    tag_20:\n        /* \"#utility.yul\":40:46   */\n      0x00\n        /* \"#utility.yul\":73:75   */\n      0x40\n        /* \"#utility.yul\":67:76   */\n      mload\n        /* \"#utility.yul\":57:76   */\n      swap1\n      pop\n        /* \"#utility.yul\":7:82   */\n      swap1\n      jump\t// out\n        /* \"#utility.yul\":88:205   */\n    tag_21:\n        /* \"#utility.yul\":197:198   */\n      0x00\n        /* \"#utility.yul\":194:195   */\n      dup1\n        /* \"#utility.yul\":187:199   */\n      revert\n        /* \"#utility.yul\":211:328   */\n    tag_22:\n        /* \"#utility.yul\":320:321   */\n      0x00\n        /* \"#utility.yul\":317:318   */\n      dup1\n        /* \"#utility.yul\":310:322   */\n      revert\n        /* \"#utility.yul\":334:451   */\n    tag_23:\n        /* \"#utility.yul\":443:444   */\n      0x00\n        /* \"#utility.yul\":440:441   */\n      dup1\n        /* \"#utility.yul\":433:445   */\n      revert\n        /* \"#utility.yul\":457:574   */\n    tag_24:\n        /* \"#utility.yul\":566:567   */\n      0x00\n        /* \"#utility.yul\":563:564   */\n      dup1\n        /* \"#utility.yul\":556:568   */\n      revert\n        /* \"#utility.yul\":580:682   */\n    tag_25:\n        /* \"#utility.yul\":621:627   */\n      0x00\n        /* \"#utility.yul\":672:674   */\n      0x1f\n        /* \"#utility.yul\":668:675   */\n      not\n        /* \"#utility.yul\":663:665   */\n      0x1f\n        /* \"#utility.yul\":656:661   */\n      dup4\n        /* \"#utility.yul\":652:666   */\n      add\n        /* \"#utility.yul\":648:676   */\n      and\n        /* \"#utility.yul\":638:676   */\n      swap1\n      pop\n        /* \"#utility.yul\":580:682   */\n      swap2\n      swap1\n      pop\n      jump\t// out\n        /* \"#utility.yul\":688:868   */\n    tag_26:\n        /* \"#utility.yul\":736:813   */\n      0x4e487b7100000000000000000000000000000000000000000000000000000000\n        /* \"#utility.yul\":733:734   */\n      0x00\n        /* \"#utility.yul\":726:814   */\n      mstore\n        /* \"#utility.yul\":833:837   */\n      0x41\n        /* \"#utility.yul\":830:831   */\n      0x04\n        /* \"#utility.yul\":823:838   */\n      mstore\n        /* \"#utility.yul\":857:861   */\n      0x24\n        /* \"#utility.yul\":854:855   */\n      0x00\n        /* \"#utility.yul\":847:862   */\n      revert\n        /* \"#utility.yul\":874:1155   */\n    tag_27:\n        /* \"#utility.yul\":957:984   */\n      tag_43\n        /* \"#utility.yul\":979:983   */\n      dup3\n        /* \"#utility.yul\":957:984   */\n      tag_25\n      jump\t// in\n    tag_43:\n        /* \"#utility.yul\":949:955   */\n      dup2\n        /* \"#utility.yul\":945:985   */\n      add\n        /* \"#utility.yul\":1087:1093   */\n      dup2\n        /* \"#utility.yul\":1075:1085   */\n      dup2\n        /* \"#utility.yul\":1072:1094   */\n      lt\n        /* \"#utility.yul\":1051:1069   */\n      0xffffffffffffffff\n        /* \"#utility.yul\":1039:1049   */\n      dup3\n        /* \"#utility.yul\":1036:1070   */\n      gt\n        /* \"#utility.yul\":1033:1095   */\n      or\n        /* \"#utility.yul\":1030:1118   */\n      iszero\n      tag_44\n      jumpi\n        /* \"#utility.yul\":1098:1116   */\n      tag_45\n      tag_26\n      jump\t// in\n    tag_45:\n        /* \"#utility.yul\":1030:1118   */\n    tag_44:\n        /* \"#utility.yul\":1138:1148   */\n      dup1\n        /* \"#utility.yul\":1134:1136   */\n      0x40\n        /* \"#utility.yul\":1127:1149   */\n      mstore\n        /* \"#utility.yul\":917:1155   */\n      pop\n        /* \"#utility.yul\":874:1155   */\n      pop\n      pop\n      jump\t// out\n        /* \"#utility.yul\":1161:1290   */\n    tag_28:\n        /* \"#utility.yul\":1195:1201   */\n      0x00\n        /* \"#utility.yul\":1222:1242   */\n      tag_47\n      tag_20\n      jump\t// in\n    tag_47:\n        /* \"#utility.yul\":1212:1242   */\n      swap1\n      pop\n        /* \"#utility.yul\":1251:1284   */\n      tag_48\n        /* \"#utility.yul\":1279:1283   */\n      dup3\n        /* \"#utility.yul\":1271:1277   */\n      dup3\n        /* \"#utility.yul\":1251:1284   */\n      tag_27\n      jump\t// in\n    tag_48:\n        /* \"#utility.yul\":1161:1290   */\n      swap2\n      swap1\n      pop\n      jump\t// out\n        /* \"#utility.yul\":1296:1604   */\n    tag_29:\n        /* \"#utility.yul\":1358:1362   */\n      0x00\n        /* \"#utility.yul\":1448:1466   */\n      0xffffffffffffffff\n        /* \"#utility.yul\":1440:1446   */\n      dup3\n        /* \"#utility.yul\":1437:1467   */\n      gt\n        /* \"#utility.yul\":1434:1490   */\n      iszero\n      tag_50\n      jumpi\n        /* \"#utility.yul\":1470:1488   */\n      tag_51\n      tag_26\n      jump\t// in\n    tag_51:\n        /* \"#utility.yul\":1434:1490   */\n    tag_50:\n        /* \"#utility.yul\":1508:1537   */\n      tag_52\n        /* \"#utility.yul\":1530:1536   */\n      dup3\n        /* \"#utility.yul\":1508:1537   */\n      tag_25\n      jump\t// in\n    tag_52:\n        /* \"#utility.yul\":1500:1537   */\n      swap1\n      pop\n        /* \"#utility.yul\":1592:1596   */\n      0x20\n        /* \"#utility.yul\":1586:1590   */\n      dup2\n        /* \"#utility.yul\":1582:1597   */\n      add\n        /* \"#utility.yul\":1574:1597   */\n      swap1\n      pop\n        /* \"#utility.yul\":1296:1604   */\n      swap2\n      swap1\n      pop\n      jump\t// out\n        /* \"#utility.yul\":1610:1917   */\n    tag_30:\n        /* \"#utility.yul\":1678:1679   */\n      0x00\n        /* \"#utility.yul\":1688:1801   */\n    tag_54:\n        /* \"#utility.yul\":1702:1708   */\n      dup4\n        /* \"#utility.yul\":1699:1700   */\n      dup2\n        /* \"#utility.yul\":1696:1709   */\n      lt\n        /* \"#utility.yul\":1688:1801   */\n      iszero\n      tag_56\n      jumpi\n        /* \"#utility.yul\":1787:1788   */\n      dup1\n        /* \"#utility.yul\":1782:1785   */\n      dup3\n        /* \"#utility.yul\":1778:1789   */\n      add\n        /* \"#utility.yul\":1772:1790   */\n      mload\n        /* \"#utility.yul\":1768:1769   */\n      dup2\n        /* \"#utility.yul\":1763:1766   */\n      dup5\n        /* \"#utility.yul\":1759:1770   */\n      add\n        /* \"#utility.yul\":1752:1791   */\n      mstore\n        /* \"#utility.yul\":1724:1726   */\n      0x20\n        /* \"#utility.yul\":1721:1722   */\n      dup2\n        /* \"#utility.yul\":1717:1727   */\n      add\n        /* \"#utility.yul\":1712:1727   */\n      swap1\n      pop\n        /* \"#utility.yul\":1688:1801   */\n      jump(tag_54)\n    tag_56:\n        /* \"#utility.yul\":1819:1825   */\n      dup4\n        /* \"#utility.yul\":1816:1817   */\n      dup2\n        /* \"#utility.yul\":1813:1826   */\n      gt\n        /* \"#utility.yul\":1810:1911   */\n      iszero\n      tag_57\n      jumpi\n        /* \"#utility.yul\":1899:1900   */\n      0x00\n        /* \"#utility.yul\":1890:1896   */\n      dup5\n        /* \"#utility.yul\":1885:1888   */\n      dup5\n        /* \"#utility.yul\":1881:1897   */\n      add\n        /* \"#utility.yul\":1874:1901   */\n      mstore\n        /* \"#utility.yul\":1810:1911   */\n    tag_57:\n        /* \"#utility.yul\":1659:1917   */\n      pop\n        /* \"#utility.yul\":1610:1917   */\n      pop\n      pop\n      pop\n      jump\t// out\n        /* \"#utility.yul\":1923:2344   */\n    tag_31:\n        /* \"#utility.yul\":2012:2017   */\n      0x00\n        /* \"#utility.yul\":2037:2103   */\n      tag_59\n        /* \"#utility.yul\":2053:2102   */\n      tag_60\n        /* \"#utility.yul\":2095:2101   */\n      dup5\n        /* \"#utility.yul\":2053:2102   */\n      tag_29\n      jump\t// in\n    tag_60:\n        /* \"#utility.yul\":2037:2103   */\n      tag_28\n      jump\t// in\n    tag_59:\n        /* \"#utility.yul\":2028:2103   */\n      swap1\n      pop\n        /* \"#utility.yul\":2126:2132   */\n      dup3\n        /* \"#utility.yul\":2119:2124   */\n      dup2\n        /* \"#utility.yul\":2112:2133   */\n      mstore\n        /* \"#utility.yul\":2164:2168   */\n      0x20\n        /* \"#utility.yul\":2157:2162   */\n      dup2\n        /* \"#utility.yul\":2153:2169   */\n      add\n        /* \"#utility.yul\":2202:2205   */\n      dup5\n        /* \"#utility.yul\":2193:2199   */\n      dup5\n        /* \"#utility.yul\":2188:2191   */\n      dup5\n        /* \"#utility.yul\":2184:2200   */\n      add\n        /* \"#utility.yul\":2181:2206   */\n      gt\n        /* \"#utility.yul\":2178:2290   */\n      iszero\n      tag_61\n      jumpi\n        /* \"#utility.yul\":2209:2288   */\n      tag_62\n      tag_24\n      jump\t// in\n    tag_62:\n        /* \"#utility.yul\":2178:2290   */\n    tag_61:\n        /* \"#utility.yul\":2299:2338   */\n      tag_63\n        /* \"#utility.yul\":2331:2337   */\n      dup5\n        /* \"#utility.yul\":2326:2329   */\n      dup3\n        /* \"#utility.yul\":2321:2324   */\n      dup6\n        /* \"#utility.yul\":2299:2338   */\n      tag_30\n      jump\t// in\n    tag_63:\n        /* \"#utility.yul\":2018:2344   */\n      pop\n        /* \"#utility.yul\":1923:2344   */\n      swap4\n      swap3\n      pop\n      pop\n      pop\n      jump\t// out\n        /* \"#utility.yul\":2364:2719   */\n    tag_32:\n        /* \"#utility.yul\":2431:2436   */\n      0x00\n        /* \"#utility.yul\":2480:2483   */\n      dup3\n        /* \"#utility.yul\":2473:2477   */\n      0x1f\n        /* \"#utility.yul\":2465:2471   */\n      dup4\n        /* \"#utility.yul\":2461:2478   */\n      add\n        /* \"#utility.yul\":2457:2484   */\n      slt\n        /* \"#utility.yul\":2447:2569   */\n      tag_65\n      jumpi\n        /* \"#utility.yul\":2488:2567   */\n      tag_66\n      tag_23\n      jump\t// in\n    tag_66:\n        /* \"#utility.yul\":2447:2569   */\n    tag_65:\n        /* \"#utility.yul\":2598:2604   */\n      dup2\n        /* \"#utility.yul\":2592:2605   */\n      mload\n        /* \"#utility.yul\":2623:2713   */\n      tag_67\n        /* \"#utility.yul\":2709:2712   */\n      dup5\n        /* \"#utility.yul\":2701:2707   */\n      dup3\n        /* \"#utility.yul\":2694:2698   */\n      0x20\n        /* \"#utility.yul\":2686:2692   */\n      dup7\n        /* \"#utility.yul\":2682:2699   */\n      add\n        /* \"#utility.yul\":2623:2713   */\n      tag_31\n      jump\t// in\n    tag_67:\n        /* \"#utility.yul\":2614:2713   */\n      swap2\n      pop\n        /* \"#utility.yul\":2437:2719   */\n      pop\n        /* \"#utility.yul\":2364:2719   */\n      swap3\n      swap2\n      pop\n      pop\n      jump\t// out\n        /* \"#utility.yul\":2725:3249   */\n    tag_3:\n        /* \"#utility.yul\":2805:2811   */\n      0x00\n        /* \"#utility.yul\":2854:2856   */\n      0x20\n        /* \"#utility.yul\":2842:2851   */\n      dup3\n        /* \"#utility.yul\":2833:2840   */\n      dup5\n        /* \"#utility.yul\":2829:2852   */\n      sub\n        /* \"#utility.yul\":2825:2857   */\n      slt\n        /* \"#utility.yul\":2822:2941   */\n      iszero\n      tag_69\n      jumpi\n        /* \"#utility.yul\":2860:2939   */\n      tag_70\n      tag_21\n      jump\t// in\n    tag_70:\n        /* \"#utility.yul\":2822:2941   */\n    tag_69:\n        /* \"#utility.yul\":3001:3002   */\n      0x00\n        /* \"#utility.yul\":2990:2999   */\n      dup3\n        /* \"#utility.yul\":2986:3003   */\n      add\n        /* \"#utility.yul\":2980:3004   */\n      mload\n        /* \"#utility.yul\":3031:3049   */\n      0xffffffffffffffff\n        /* \"#utility.yul\":3023:3029   */\n      dup2\n        /* \"#utility.yul\":3020:3050   */\n      gt\n        /* \"#utility.yul\":3017:3134   */\n      iszero\n      tag_71\n      jumpi\n        /* \"#utility.yul\":3053:3132   */\n      tag_72\n      tag_22\n      jump\t// in\n    tag_72:\n        /* \"#utility.yul\":3017:3134   */\n    tag_71:\n        /* \"#utility.yul\":3158:3232   */\n      tag_73\n        /* \"#utility.yul\":3224:3231   */\n      dup5\n        /* \"#utility.yul\":3215:3221   */\n      dup3\n        /* \"#utility.yul\":3204:3213   */\n      dup6\n        /* \"#utility.yul\":3200:3222   */\n      add\n        /* \"#utility.yul\":3158:3232   */\n      tag_32\n      jump\t// in\n    tag_73:\n        /* \"#utility.yul\":3148:3232   */\n      swap2\n      pop\n        /* \"#utility.yul\":2951:3242   */\n      pop\n        /* \"#utility.yul\":2725:3249   */\n      swap3\n      swap2\n      pop\n      pop\n      jump\t// out\n        /* \"#utility.yul\":3255:3435   */\n    tag_33:\n        /* \"#utility.yul\":3303:3380   */\n      0x4e487b7100000000000000000000000000000000000000000000000000000000\n        /* \"#utility.yul\":3300:3301   */\n      0x00\n        /* \"#utility.yul\":3293:3381   */\n      mstore\n        /* \"#utility.yul\":3400:3404   */\n      0x22\n        /* \"#utility.yul\":3397:3398   */\n      0x04\n        /* \"#utility.yul\":3390:3405   */\n      mstore\n        /* \"#utility.yul\":3424:3428   */\n      0x24\n        /* \"#utility.yul\":3421:3422   */\n      0x00\n        /* \"#utility.yul\":3414:3429   */\n      revert\n        /* \"#utility.yul\":3441:3761   */\n    tag_10:\n        /* \"#utility.yul\":3485:3491   */\n      0x00\n        /* \"#utility.yul\":3522:3523   */\n      0x02\n        /* \"#utility.yul\":3516:3520   */\n      dup3\n        /* \"#utility.yul\":3512:3524   */\n      div\n        /* \"#utility.yul\":3502:3524   */\n      swap1\n      pop\n        /* \"#utility.yul\":3569:3570   */\n      0x01\n        /* \"#utility.yul\":3563:3567   */\n      dup3\n        /* \"#utility.yul\":3559:3571   */\n      and\n        /* \"#utility.yul\":3590:3608   */\n      dup1\n        /* \"#utility.yul\":3580:3661   */\n      tag_76\n      jumpi\n        /* \"#utility.yul\":3646:3650   */\n      0x7f\n        /* \"#utility.yul\":3638:3644   */\n      dup3\n        /* \"#utility.yul\":3634:3651   */\n      and\n        /* \"#utility.yul\":3624:3651   */\n      swap2\n      pop\n        /* \"#utility.yul\":3580:3661   */\n    tag_76:\n        /* \"#utility.yul\":3708:3710   */\n      0x20\n        /* \"#utility.yul\":3700:3706   */\n      dup3\n        /* \"#utility.yul\":3697:3711   */\n      lt\n        /* \"#utility.yul\":3677:3695   */\n      dup2\n        /* \"#utility.yul\":3674:3712   */\n      eq\n        /* \"#utility.yul\":3671:3755   */\n      iszero\n      tag_77\n      jumpi\n        /* \"#utility.yul\":3727:3745   */\n      tag_78\n      tag_33\n      jump\t// in\n    tag_78:\n        /* \"#utility.yul\":3671:3755   */\n    tag_77:\n        /* \"#utility.yul\":3492:3761   */\n      pop\n        /* \"#utility.yul\":3441:3761   */\n      swap2\n      swap1\n      pop\n      jump\t// out\n        /* \"Contracts/Inheritance.sol\":288:508  contract SecretVault {... */\n    tag_8:\n      dataSize(sub_0)\n      dup1\n      dataOffset(sub_0)\n      0x00\n      codecopy\n      0x00\n      return\n    stop\n\n    sub_0: assembly {\n            /* \"Contracts/Inheritance.sol\":288:508  contract SecretVault {... */\n          mstore(0x40, 0x80)\n          callvalue\n          dup1\n          iszero\n          tag_1\n          jumpi\n          0x00\n          dup1\n          revert\n        tag_1:\n          pop\n          jumpi(tag_2, lt(calldatasize, 0x04))\n          shr(0xe0, calldataload(0x00))\n          dup1\n          0x5b9fdc30\n          eq\n          tag_3\n          jumpi\n        tag_2:\n          0x00\n          dup1\n          revert\n            /* \"Contracts/Inheritance.sol\":417:505  function getSecret() public view returns(string memory) {... */\n        tag_3:\n          tag_4\n          tag_5\n          jump\t// in\n        tag_4:\n          mload(0x40)\n          tag_6\n          swap2\n          swap1\n          tag_7\n          jump\t// in\n        tag_6:\n          mload(0x40)\n          dup1\n          swap2\n          sub\n          swap1\n          return\n        tag_5:\n            /* \"Contracts/Inheritance.sol\":458:471  string memory */\n          0x60\n            /* \"Contracts/Inheritance.sol\":491:497  secret */\n          0x00\n            /* \"Contracts/Inheritance.sol\":484:497  return secret */\n          dup1\n          sload\n          tag_9\n          swap1\n          tag_10\n          jump\t// in\n        tag_9:\n          dup1\n          0x1f\n          add\n          0x20\n          dup1\n          swap2\n          div\n          mul\n          0x20\n          add\n          mload(0x40)\n          swap1\n          dup2\n          add\n          0x40\n          mstore\n          dup1\n          swap3\n          swap2\n          swap1\n          dup2\n          dup2\n          mstore\n          0x20\n          add\n          dup3\n          dup1\n          sload\n          tag_11\n          swap1\n          tag_10\n          jump\t// in\n        tag_11:\n          dup1\n          iszero\n          tag_12\n          jumpi\n          dup1\n          0x1f\n          lt\n          tag_13\n          jumpi\n          0x0100\n          dup1\n          dup4\n          sload\n          div\n          mul\n          dup4\n          mstore\n          swap2\n          0x20\n          add\n          swap2\n          jump(tag_12)\n        tag_13:\n          dup3\n          add\n          swap2\n          swap1\n          0x00\n          mstore\n          keccak256(0x00, 0x20)\n          swap1\n        tag_14:\n          dup2\n          sload\n          dup2\n          mstore\n          swap1\n          0x01\n          add\n          swap1\n          0x20\n          add\n          dup1\n          dup4\n          gt\n          tag_14\n          jumpi\n          dup3\n          swap1\n          sub\n          0x1f\n          and\n          dup3\n          add\n          swap2\n        tag_12:\n          pop\n          pop\n          pop\n          pop\n          pop\n          swap1\n          pop\n            /* \"Contracts/Inheritance.sol\":417:505  function getSecret() public view returns(string memory) {... */\n          swap1\n          jump\t// out\n            /* \"#utility.yul\":7:106   */\n        tag_15:\n            /* \"#utility.yul\":59:65   */\n          0x00\n            /* \"#utility.yul\":93:98   */\n          dup2\n            /* \"#utility.yul\":87:99   */\n          mload\n            /* \"#utility.yul\":77:99   */\n          swap1\n          pop\n            /* \"#utility.yul\":7:106   */\n          swap2\n          swap1\n          pop\n          jump\t// out\n            /* \"#utility.yul\":112:281   */\n        tag_16:\n            /* \"#utility.yul\":196:207   */\n          0x00\n            /* \"#utility.yul\":230:236   */\n          dup3\n            /* \"#utility.yul\":225:228   */\n          dup3\n            /* \"#utility.yul\":218:237   */\n          mstore\n            /* \"#utility.yul\":270:274   */\n          0x20\n            /* \"#utility.yul\":265:268   */\n          dup3\n            /* \"#utility.yul\":261:275   */\n          add\n            /* \"#utility.yul\":246:275   */\n          swap1\n          pop\n            /* \"#utility.yul\":112:281   */\n          swap3\n          swap2\n          pop\n          pop\n          jump\t// out\n            /* \"#utility.yul\":287:594   */\n        tag_17:\n            /* \"#utility.yul\":355:356   */\n          0x00\n            /* \"#utility.yul\":365:478   */\n        tag_25:\n            /* \"#utility.yul\":379:385   */\n          dup4\n            /* \"#utility.yul\":376:377   */\n          dup2\n            /* \"#utility.yul\":373:386   */\n          lt\n            /* \"#utility.yul\":365:478   */\n          iszero\n          tag_27\n          jumpi\n            /* \"#utility.yul\":464:465   */\n          dup1\n            /* \"#utility.yul\":459:462   */\n          dup3\n            /* \"#utility.yul\":455:466   */\n          add\n            /* \"#utility.yul\":449:467   */\n          mload\n            /* \"#utility.yul\":445:446   */\n          dup2\n            /* \"#utility.yul\":440:443   */\n          dup5\n            /* \"#utility.yul\":436:447   */\n          add\n            /* \"#utility.yul\":429:468   */\n          mstore\n            /* \"#utility.yul\":401:403   */\n          0x20\n            /* \"#utility.yul\":398:399   */\n          dup2\n            /* \"#utility.yul\":394:404   */\n          add\n            /* \"#utility.yul\":389:404   */\n          swap1\n          pop\n            /* \"#utility.yul\":365:478   */\n          jump(tag_25)\n        tag_27:\n            /* \"#utility.yul\":496:502   */\n          dup4\n            /* \"#utility.yul\":493:494   */\n          dup2\n            /* \"#utility.yul\":490:503   */\n          gt\n            /* \"#utility.yul\":487:588   */\n          iszero\n          tag_28\n          jumpi\n            /* \"#utility.yul\":576:577   */\n          0x00\n            /* \"#utility.yul\":567:573   */\n          dup5\n            /* \"#utility.yul\":562:565   */\n          dup5\n            /* \"#utility.yul\":558:574   */\n          add\n            /* \"#utility.yul\":551:578   */\n          mstore\n            /* \"#utility.yul\":487:588   */\n        tag_28:\n            /* \"#utility.yul\":336:594   */\n          pop\n            /* \"#utility.yul\":287:594   */\n          pop\n          pop\n          pop\n          jump\t// out\n            /* \"#utility.yul\":600:702   */\n        tag_18:\n            /* \"#utility.yul\":641:647   */\n          0x00\n            /* \"#utility.yul\":692:694   */\n          0x1f\n            /* \"#utility.yul\":688:695   */\n          not\n            /* \"#utility.yul\":683:685   */\n          0x1f\n            /* \"#utility.yul\":676:681   */\n          dup4\n            /* \"#utility.yul\":672:686   */\n          add\n            /* \"#utility.yul\":668:696   */\n          and\n            /* \"#utility.yul\":658:696   */\n          swap1\n          pop\n            /* \"#utility.yul\":600:702   */\n          swap2\n          swap1\n          pop\n          jump\t// out\n            /* \"#utility.yul\":708:1072   */\n        tag_19:\n            /* \"#utility.yul\":796:799   */\n          0x00\n            /* \"#utility.yul\":824:863   */\n          tag_31\n            /* \"#utility.yul\":857:862   */\n          dup3\n            /* \"#utility.yul\":824:863   */\n          tag_15\n          jump\t// in\n        tag_31:\n            /* \"#utility.yul\":879:950   */\n          tag_32\n            /* \"#utility.yul\":943:949   */\n          dup2\n            /* \"#utility.yul\":938:941   */\n          dup6\n            /* \"#utility.yul\":879:950   */\n          tag_16\n          jump\t// in\n        tag_32:\n            /* \"#utility.yul\":872:950   */\n          swap4\n          pop\n            /* \"#utility.yul\":959:1011   */\n          tag_33\n            /* \"#utility.yul\":1004:1010   */\n          dup2\n            /* \"#utility.yul\":999:1002   */\n          dup6\n            /* \"#utility.yul\":992:996   */\n          0x20\n            /* \"#utility.yul\":985:990   */\n          dup7\n            /* \"#utility.yul\":981:997   */\n          add\n            /* \"#utility.yul\":959:1011   */\n          tag_17\n          jump\t// in\n        tag_33:\n            /* \"#utility.yul\":1036:1065   */\n          tag_34\n            /* \"#utility.yul\":1058:1064   */\n          dup2\n            /* \"#utility.yul\":1036:1065   */\n          tag_18\n          jump\t// in\n        tag_34:\n            /* \"#utility.yul\":1031:1034   */\n          dup5\n            /* \"#utility.yul\":1027:1066   */\n          add\n            /* \"#utility.yul\":1020:1066   */\n          swap2\n          pop\n            /* \"#utility.yul\":800:1072   */\n          pop\n            /* \"#utility.yul\":708:1072   */\n          swap3\n          swap2\n          pop\n          pop\n          jump\t// out\n            /* \"#utility.yul\":1078:1391   */\n        tag_7:\n            /* \"#utility.yul\":1191:1195   */\n          0x00\n            /* \"#utility.yul\":1229:1231   */\n          0x20\n            /* \"#utility.yul\":1218:1227   */\n          dup3\n            /* \"#utility.yul\":1214:1232   */\n          add\n            /* \"#utility.yul\":1206:1232   */\n          swap1\n          pop\n            /* \"#utility.yul\":1278:1287   */\n          dup2\n            /* \"#utility.yul\":1272:1276   */\n          dup2\n            /* \"#utility.yul\":1268:1288   */\n          sub\n            /* \"#utility.yul\":1264:1265   */\n          0x00\n            /* \"#utility.yul\":1253:1262   */\n          dup4\n            /* \"#utility.yul\":1249:1266   */\n          add\n            /* \"#utility.yul\":1242:1289   */\n          mstore\n            /* \"#utility.yul\":1306:1384   */\n          tag_36\n            /* \"#utility.yul\":1379:1383   */\n          dup2\n            /* \"#utility.yul\":1370:1376   */\n          dup5\n            /* \"#utility.yul\":1306:1384   */\n          tag_19\n          jump\t// in\n        tag_36:\n            /* \"#utility.yul\":1298:1384   */\n          swap1\n          pop\n            /* \"#utility.yul\":1078:1391   */\n          swap3\n          swap2\n          pop\n          pop\n          jump\t// out\n            /* \"#utility.yul\":1397:1577   */\n        tag_20:\n            /* \"#utility.yul\":1445:1522   */\n          0x4e487b7100000000000000000000000000000000000000000000000000000000\n            /* \"#utility.yul\":1442:1443   */\n          0x00\n            /* \"#utility.yul\":1435:1523   */\n          mstore\n            /* \"#utility.yul\":1542:1546   */\n          0x22\n            /* \"#utility.yul\":1539:1540   */\n          0x04\n            /* \"#utility.yul\":1532:1547   */\n          mstore\n            /* \"#utility.yul\":1566:1570   */\n          0x24\n            /* \"#utility.yul\":1563:1564   */\n          0x00\n            /* \"#utility.yul\":1556:1571   */\n          revert\n            /* \"#utility.yul\":1583:1903   */\n        tag_10:\n            /* \"#utility.yul\":1627:1633   */\n          0x00\n            /* \"#utility.yul\":1664:1665   */\n          0x02\n            /* \"#utility.yul\":1658:1662   */\n          dup3\n            /* \"#utility.yul\":1654:1666   */\n          div\n            /* \"#utility.yul\":1644:1666   */\n          swap1\n          pop\n            /* \"#utility.yul\":1711:1712   */\n          0x01\n            /* \"#utility.yul\":1705:1709   */\n          dup3\n            /* \"#utility.yul\":1701:1713   */\n          and\n            /* \"#utility.yul\":1732:1750   */\n          dup1\n            /* \"#utility.yul\":1722:1803   */\n          tag_39\n          jumpi\n            /* \"#utility.yul\":1788:1792   */\n          0x7f\n            /* \"#utility.yul\":1780:1786   */\n          dup3\n            /* \"#utility.yul\":1776:1793   */\n          and\n            /* \"#utility.yul\":1766:1793   */\n          swap2\n          pop\n            /* \"#utility.yul\":1722:1803   */\n        tag_39:\n            /* \"#utility.yul\":1850:1852   */\n          0x20\n            /* \"#utility.yul\":1842:1848   */\n          dup3\n            /* \"#utility.yul\":1839:1853   */\n          lt\n            /* \"#utility.yul\":1819:1837   */\n          dup2\n            /* \"#utility.yul\":1816:1854   */\n          eq\n            /* \"#utility.yul\":1813:1897   */\n          iszero\n          tag_40\n          jumpi\n            /* \"#utility.yul\":1869:1887   */\n          tag_41\n          tag_20\n          jump\t// in\n        tag_41:\n            /* \"#utility.yul\":1813:1897   */\n        tag_40:\n            /* \"#utility.yul\":1634:1903   */\n          pop\n            /* \"#utility.yul\":1583:1903   */\n          swap2\n          swap1\n          pop\n          jump\t// out\n\n        auxdata: 0xa26469706673582212202c8dbcdc9b2b328e96774a4a96058e84882424daec98d5f80ee1d5f640c9c12464736f6c634300080c0033\n    }\n}\n",
				"bytecode": {
					"linkReferences": {},
					"object": "608060405234801561001057600080fd5b5060405162000d0a38038062000d0a83398181016040528101906100349190610280565b336000806101000a81548173ffffffffffffffffffffffffffffffffffffffff021916908373ffffffffffffffffffffffffffffffffffffffff160217905550600081604051610083906100f4565b61008d919061031e565b604051809103906000f0801580156100a9573d6000803e3d6000fd5b50905080600160006101000a81548173ffffffffffffffffffffffffffffffffffffffff021916908373ffffffffffffffffffffffffffffffffffffffff1602179055505050610340565b61055b80620007af83390190565b6000604051905090565b600080fd5b600080fd5b600080fd5b600080fd5b6000601f19601f8301169050919050565b7f4e487b7100000000000000000000000000000000000000000000000000000000600052604160045260246000fd5b61016982610120565b810181811067ffffffffffffffff8211171561018857610187610131565b5b80604052505050565b600061019b610102565b90506101a78282610160565b919050565b600067ffffffffffffffff8211156101c7576101c6610131565b5b6101d082610120565b9050602081019050919050565b60005b838110156101fb5780820151818401526020810190506101e0565b8381111561020a576000848401525b50505050565b600061022361021e846101ac565b610191565b90508281526020810184848401111561023f5761023e61011b565b5b61024a8482856101dd565b509392505050565b600082601f83011261026757610266610116565b5b8151610277848260208601610210565b91505092915050565b6000602082840312156102965761029561010c565b5b600082015167ffffffffffffffff8111156102b4576102b3610111565b5b6102c084828501610252565b91505092915050565b600081519050919050565b600082825260208201905092915050565b60006102f0826102c9565b6102fa81856102d4565b935061030a8185602086016101dd565b61031381610120565b840191505092915050565b6000602082019050818103600083015261033881846102e5565b905092915050565b61045f80620003506000396000f3fe608060405234801561001057600080fd5b506004361061002b5760003560e01c80635b9fdc3014610030575b600080fd5b61003861004e565b6040516100459190610218565b60405180910390f35b606060008054906101000a900473ffffffffffffffffffffffffffffffffffffffff1673ffffffffffffffffffffffffffffffffffffffff163373ffffffffffffffffffffffffffffffffffffffff16146100de576040517f08c379a00000000000000000000000000000000000000000000000000000000081526004016100d590610286565b60405180910390fd5b6000600160009054906101000a900473ffffffffffffffffffffffffffffffffffffffff1690508073ffffffffffffffffffffffffffffffffffffffff16635b9fdc306040518163ffffffff1660e01b8152600401600060405180830381865afa158015610150573d6000803e3d6000fd5b505050506040513d6000823e3d601f19601f8201168201806040525081019061017991906103e0565b91505090565b600081519050919050565b600082825260208201905092915050565b60005b838110156101b957808201518184015260208101905061019e565b838111156101c8576000848401525b50505050565b6000601f19601f8301169050919050565b60006101ea8261017f565b6101f4818561018a565b935061020481856020860161019b565b61020d816101ce565b840191505092915050565b6000602082019050818103600083015261023281846101df565b905092915050565b7f6d757374206265206f776e657200000000000000000000000000000000000000600082015250565b6000610270600d8361018a565b915061027b8261023a565b602082019050919050565b6000602082019050818103600083015261029f81610263565b9050919050565b6000604051905090565b600080fd5b600080fd5b600080fd5b600080fd5b7f4e487b7100000000000000000000000000000000000000000000000000000000600052604160045260246000fd5b6102fc826101ce565b810181811067ffffffffffffffff8211171561031b5761031a6102c4565b5b80604052505050565b600061032e6102a6565b905061033a82826102f3565b919050565b600067ffffffffffffffff82111561035a576103596102c4565b5b610363826101ce565b9050602081019050919050565b600061038361037e8461033f565b610324565b90508281526020810184848401111561039f5761039e6102bf565b5b6103aa84828561019b565b509392505050565b600082601f8301126103c7576103c66102ba565b5b81516103d7848260208601610370565b91505092915050565b6000602082840312156103f6576103f56102b0565b5b600082015167ffffffffffffffff811115610414576104136102b5565b5b610420848285016103b2565b9150509291505056fea264697066735822122055b75dc98bfe9284c7899099936cd741350bb7177f5c9cbd723cda11ab41e19d64736f6c634300080c0033608060405234801561001057600080fd5b5060405161055b38038061055b83398181016040528101906100329190610270565b806000908051906020019061004892919061004f565b505061031a565b82805461005b906102e8565b90600052602060002090601f01602090048101928261007d57600085556100c4565b82601f1061009657805160ff19168380011785556100c4565b828001600101855582156100c4579182015b828111156100c35782518255916020019190600101906100a8565b5b5090506100d191906100d5565b5090565b5b808211156100ee5760008160009055506001016100d6565b5090565b6000604051905090565b600080fd5b600080fd5b600080fd5b600080fd5b6000601f19601f8301169050919050565b7f4e487b7100000000000000000000000000000000000000000000000000000000600052604160045260246000fd5b61015982610110565b810181811067ffffffffffffffff8211171561017857610177610121565b5b80604052505050565b600061018b6100f2565b90506101978282610150565b919050565b600067ffffffffffffffff8211156101b7576101b6610121565b5b6101c082610110565b9050602081019050919050565b60005b838110156101eb5780820151818401526020810190506101d0565b838111156101fa576000848401525b50505050565b600061021361020e8461019c565b610181565b90508281526020810184848401111561022f5761022e61010b565b5b61023a8482856101cd565b509392505050565b600082601f83011261025757610256610106565b5b8151610267848260208601610200565b91505092915050565b600060208284031215610286576102856100fc565b5b600082015167ffffffffffffffff8111156102a4576102a3610101565b5b6102b084828501610242565b91505092915050565b7f4e487b7100000000000000000000000000000000000000000000000000000000600052602260045260246000fd5b6000600282049050600182168061030057607f821691505b60208210811415610314576103136102b9565b5b50919050565b610232806103296000396000f3fe608060405234801561001057600080fd5b506004361061002b5760003560e01c80635b9fdc3014610030575b600080fd5b61003861004e565b6040516100459190610179565b60405180910390f35b60606000805461005d906101ca565b80601f0160208091040260200160405190810160405280929190818152602001828054610089906101ca565b80156100d65780601f106100ab576101008083540402835291602001916100d6565b820191906000526020600020905b8154815290600101906020018083116100b957829003601f168201915b5050505050905090565b600081519050919050565b600082825260208201905092915050565b60005b8381101561011a5780820151818401526020810190506100ff565b83811115610129576000848401525b50505050565b6000601f19601f8301169050919050565b600061014b826100e0565b61015581856100eb565b93506101658185602086016100fc565b61016e8161012f565b840191505092915050565b600060208201905081810360008301526101938184610140565b905092915050565b7f4e487b7100000000000000000000000000000000000000000000000000000000600052602260045260246000fd5b600060028204905060018216806101e257607f821691505b602082108114156101f6576101f561019b565b5b5091905056fea26469706673582212202c8dbcdc9b2b328e96774a4a96058e84882424daec98d5f80ee1d5f640c9c12464736f6c634300080c0033",
					"opcodes": "PUSH1 0x80 PUSH1 0x40 MSTORE CALLVALUE DUP1 ISZERO PUSH2 0x10 JUMPI PUSH1 0x0 DUP1 REVERT JUMPDEST POP PUSH1 0x40 MLOAD PUSH3 0xD0A CODESIZE SUB DUP1 PUSH3 0xD0A DUP4 CODECOPY DUP2 DUP2 ADD PUSH1 0x40 MSTORE DUP2 ADD SWAP1 PUSH2 0x34 SWAP2 SWAP1 PUSH2 0x280 JUMP JUMPDEST CALLER PUSH1 0x0 DUP1 PUSH2 0x100 EXP DUP2 SLOAD DUP2 PUSH20 0xFFFFFFFFFFFFFFFFFFFFFFFFFFFFFFFFFFFFFFFF MUL NOT AND SWAP1 DUP4 PUSH20 0xFFFFFFFFFFFFFFFFFFFFFFFFFFFFFFFFFFFFFFFF AND MUL OR SWAP1 SSTORE POP PUSH1 0x0 DUP2 PUSH1 0x40 MLOAD PUSH2 0x83 SWAP1 PUSH2 0xF4 JUMP JUMPDEST PUSH2 0x8D SWAP2 SWAP1 PUSH2 0x31E JUMP JUMPDEST PUSH1 0x40 MLOAD DUP1 SWAP2 SUB SWAP1 PUSH1 0x0 CREATE DUP1 ISZERO DUP1 ISZERO PUSH2 0xA9 JUMPI RETURNDATASIZE PUSH1 0x0 DUP1 RETURNDATACOPY RETURNDATASIZE PUSH1 0x0 REVERT JUMPDEST POP SWAP1 POP DUP1 PUSH1 0x1 PUSH1 0x0 PUSH2 0x100 EXP DUP2 SLOAD DUP2 PUSH20 0xFFFFFFFFFFFFFFFFFFFFFFFFFFFFFFFFFFFFFFFF MUL NOT AND SWAP1 DUP4 PUSH20 0xFFFFFFFFFFFFFFFFFFFFFFFFFFFFFFFFFFFFFFFF AND MUL OR SWAP1 SSTORE POP POP POP PUSH2 0x340 JUMP JUMPDEST PUSH2 0x55B DUP1 PUSH3 0x7AF DUP4 CODECOPY ADD SWAP1 JUMP JUMPDEST PUSH1 0x0 PUSH1 0x40 MLOAD SWAP1 POP SWAP1 JUMP JUMPDEST PUSH1 0x0 DUP1 REVERT JUMPDEST PUSH1 0x0 DUP1 REVERT JUMPDEST PUSH1 0x0 DUP1 REVERT JUMPDEST PUSH1 0x0 DUP1 REVERT JUMPDEST PUSH1 0x0 PUSH1 0x1F NOT PUSH1 0x1F DUP4 ADD AND SWAP1 POP SWAP2 SWAP1 POP JUMP JUMPDEST PUSH32 0x4E487B7100000000000000000000000000000000000000000000000000000000 PUSH1 0x0 MSTORE PUSH1 0x41 PUSH1 0x4 MSTORE PUSH1 0x24 PUSH1 0x0 REVERT JUMPDEST PUSH2 0x169 DUP3 PUSH2 0x120 JUMP JUMPDEST DUP2 ADD DUP2 DUP2 LT PUSH8 0xFFFFFFFFFFFFFFFF DUP3 GT OR ISZERO PUSH2 0x188 JUMPI PUSH2 0x187 PUSH2 0x131 JUMP JUMPDEST JUMPDEST DUP1 PUSH1 0x40 MSTORE POP POP POP JUMP JUMPDEST PUSH1 0x0 PUSH2 0x19B PUSH2 0x102 JUMP JUMPDEST SWAP1 POP PUSH2 0x1A7 DUP3 DUP3 PUSH2 0x160 JUMP JUMPDEST SWAP2 SWAP1 POP JUMP JUMPDEST PUSH1 0x0 PUSH8 0xFFFFFFFFFFFFFFFF DUP3 GT ISZERO PUSH2 0x1C7 JUMPI PUSH2 0x1C6 PUSH2 0x131 JUMP JUMPDEST JUMPDEST PUSH2 0x1D0 DUP3 PUSH2 0x120 JUMP JUMPDEST SWAP1 POP PUSH1 0x20 DUP2 ADD SWAP1 POP SWAP2 SWAP1 POP JUMP JUMPDEST PUSH1 0x0 JUMPDEST DUP4 DUP2 LT ISZERO PUSH2 0x1FB JUMPI DUP1 DUP3 ADD MLOAD DUP2 DUP5 ADD MSTORE PUSH1 0x20 DUP2 ADD SWAP1 POP PUSH2 0x1E0 JUMP JUMPDEST DUP4 DUP2 GT ISZERO PUSH2 0x20A JUMPI PUSH1 0x0 DUP5 DUP5 ADD MSTORE JUMPDEST POP POP POP POP JUMP JUMPDEST PUSH1 0x0 PUSH2 0x223 PUSH2 0x21E DUP5 PUSH2 0x1AC JUMP JUMPDEST PUSH2 0x191 JUMP JUMPDEST SWAP1 POP DUP3 DUP2 MSTORE PUSH1 0x20 DUP2 ADD DUP5 DUP5 DUP5 ADD GT ISZERO PUSH2 0x23F JUMPI PUSH2 0x23E PUSH2 0x11B JUMP JUMPDEST JUMPDEST PUSH2 0x24A DUP5 DUP3 DUP6 PUSH2 0x1DD JUMP JUMPDEST POP SWAP4 SWAP3 POP POP POP JUMP JUMPDEST PUSH1 0x0 DUP3 PUSH1 0x1F DUP4 ADD SLT PUSH2 0x267 JUMPI PUSH2 0x266 PUSH2 0x116 JUMP JUMPDEST JUMPDEST DUP2 MLOAD PUSH2 0x277 DUP5 DUP3 PUSH1 0x20 DUP7 ADD PUSH2 0x210 JUMP JUMPDEST SWAP2 POP POP SWAP3 SWAP2 POP POP JUMP JUMPDEST PUSH1 0x0 PUSH1 0x20 DUP3 DUP5 SUB SLT ISZERO PUSH2 0x296 JUMPI PUSH2 0x295 PUSH2 0x10C JUMP JUMPDEST JUMPDEST PUSH1 0x0 DUP3 ADD MLOAD PUSH8 0xFFFFFFFFFFFFFFFF DUP2 GT ISZERO PUSH2 0x2B4 JUMPI PUSH2 0x2B3 PUSH2 0x111 JUMP JUMPDEST JUMPDEST PUSH2 0x2C0 DUP5 DUP3 DUP6 ADD PUSH2 0x252 JUMP JUMPDEST SWAP2 POP POP SWAP3 SWAP2 POP POP JUMP JUMPDEST PUSH1 0x0 DUP2 MLOAD SWAP1 POP SWAP2 SWAP1 POP JUMP JUMPDEST PUSH1 0x0 DUP3 DUP3 MSTORE PUSH1 0x20 DUP3 ADD SWAP1 POP SWAP3 SWAP2 POP POP JUMP JUMPDEST PUSH1 0x0 PUSH2 0x2F0 DUP3 PUSH2 0x2C9 JUMP JUMPDEST PUSH2 0x2FA DUP2 DUP6 PUSH2 0x2D4 JUMP JUMPDEST SWAP4 POP PUSH2 0x30A DUP2 DUP6 PUSH1 0x20 DUP7 ADD PUSH2 0x1DD JUMP JUMPDEST PUSH2 0x313 DUP2 PUSH2 0x120 JUMP JUMPDEST DUP5 ADD SWAP2 POP POP SWAP3 SWAP2 POP POP JUMP JUMPDEST PUSH1 0x0 PUSH1 0x20 DUP3 ADD SWAP1 POP DUP2 DUP2 SUB PUSH1 0x0 DUP4 ADD MSTORE PUSH2 0x338 DUP2 DUP5 PUSH2 0x2E5 JUMP JUMPDEST SWAP1 POP SWAP3 SWAP2 POP POP JUMP JUMPDEST PUSH2 0x45F DUP1 PUSH3 0x350 PUSH1 0x0 CODECOPY PUSH1 0x0 RETURN INVALID PUSH1 0x80 PUSH1 0x40 MSTORE CALLVALUE DUP1 ISZERO PUSH2 0x10 JUMPI PUSH1 0x0 DUP1 REVERT JUMPDEST POP PUSH1 0x4 CALLDATASIZE LT PUSH2 0x2B JUMPI PUSH1 0x0 CALLDATALOAD PUSH1 0xE0 SHR DUP1 PUSH4 0x5B9FDC30 EQ PUSH2 0x30 JUMPI JUMPDEST PUSH1 0x0 DUP1 REVERT JUMPDEST PUSH2 0x38 PUSH2 0x4E JUMP JUMPDEST PUSH1 0x40 MLOAD PUSH2 0x45 SWAP2 SWAP1 PUSH2 0x218 JUMP JUMPDEST PUSH1 0x40 MLOAD DUP1 SWAP2 SUB SWAP1 RETURN JUMPDEST PUSH1 0x60 PUSH1 0x0 DUP1 SLOAD SWAP1 PUSH2 0x100 EXP SWAP1 DIV PUSH20 0xFFFFFFFFFFFFFFFFFFFFFFFFFFFFFFFFFFFFFFFF AND PUSH20 0xFFFFFFFFFFFFFFFFFFFFFFFFFFFFFFFFFFFFFFFF AND CALLER PUSH20 0xFFFFFFFFFFFFFFFFFFFFFFFFFFFFFFFFFFFFFFFF AND EQ PUSH2 0xDE JUMPI PUSH1 0x40 MLOAD PUSH32 0x8C379A000000000000000000000000000000000000000000000000000000000 DUP2 MSTORE PUSH1 0x4 ADD PUSH2 0xD5 SWAP1 PUSH2 0x286 JUMP JUMPDEST PUSH1 0x40 MLOAD DUP1 SWAP2 SUB SWAP1 REVERT JUMPDEST PUSH1 0x0 PUSH1 0x1 PUSH1 0x0 SWAP1 SLOAD SWAP1 PUSH2 0x100 EXP SWAP1 DIV PUSH20 0xFFFFFFFFFFFFFFFFFFFFFFFFFFFFFFFFFFFFFFFF AND SWAP1 POP DUP1 PUSH20 0xFFFFFFFFFFFFFFFFFFFFFFFFFFFFFFFFFFFFFFFF AND PUSH4 0x5B9FDC30 PUSH1 0x40 MLOAD DUP2 PUSH4 0xFFFFFFFF AND PUSH1 0xE0 SHL DUP2 MSTORE PUSH1 0x4 ADD PUSH1 0x0 PUSH1 0x40 MLOAD DUP1 DUP4 SUB DUP2 DUP7 GAS STATICCALL ISZERO DUP1 ISZERO PUSH2 0x150 JUMPI RETURNDATASIZE PUSH1 0x0 DUP1 RETURNDATACOPY RETURNDATASIZE PUSH1 0x0 REVERT JUMPDEST POP POP POP POP PUSH1 0x40 MLOAD RETURNDATASIZE PUSH1 0x0 DUP3 RETURNDATACOPY RETURNDATASIZE PUSH1 0x1F NOT PUSH1 0x1F DUP3 ADD AND DUP3 ADD DUP1 PUSH1 0x40 MSTORE POP DUP2 ADD SWAP1 PUSH2 0x179 SWAP2 SWAP1 PUSH2 0x3E0 JUMP JUMPDEST SWAP2 POP POP SWAP1 JUMP JUMPDEST PUSH1 0x0 DUP2 MLOAD SWAP1 POP SWAP2 SWAP1 POP JUMP JUMPDEST PUSH1 0x0 DUP3 DUP3 MSTORE PUSH1 0x20 DUP3 ADD SWAP1 POP SWAP3 SWAP2 POP POP JUMP JUMPDEST PUSH1 0x0 JUMPDEST DUP4 DUP2 LT ISZERO PUSH2 0x1B9 JUMPI DUP1 DUP3 ADD MLOAD DUP2 DUP5 ADD MSTORE PUSH1 0x20 DUP2 ADD SWAP1 POP PUSH2 0x19E JUMP JUMPDEST DUP4 DUP2 GT ISZERO PUSH2 0x1C8 JUMPI PUSH1 0x0 DUP5 DUP5 ADD MSTORE JUMPDEST POP POP POP POP JUMP JUMPDEST PUSH1 0x0 PUSH1 0x1F NOT PUSH1 0x1F DUP4 ADD AND SWAP1 POP SWAP2 SWAP1 POP JUMP JUMPDEST PUSH1 0x0 PUSH2 0x1EA DUP3 PUSH2 0x17F JUMP JUMPDEST PUSH2 0x1F4 DUP2 DUP6 PUSH2 0x18A JUMP JUMPDEST SWAP4 POP PUSH2 0x204 DUP2 DUP6 PUSH1 0x20 DUP7 ADD PUSH2 0x19B JUMP JUMPDEST PUSH2 0x20D DUP2 PUSH2 0x1CE JUMP JUMPDEST DUP5 ADD SWAP2 POP POP SWAP3 SWAP2 POP POP JUMP JUMPDEST PUSH1 0x0 PUSH1 0x20 DUP3 ADD SWAP1 POP DUP2 DUP2 SUB PUSH1 0x0 DUP4 ADD MSTORE PUSH2 0x232 DUP2 DUP5 PUSH2 0x1DF JUMP JUMPDEST SWAP1 POP SWAP3 SWAP2 POP POP JUMP JUMPDEST PUSH32 0x6D757374206265206F776E657200000000000000000000000000000000000000 PUSH1 0x0 DUP3 ADD MSTORE POP JUMP JUMPDEST PUSH1 0x0 PUSH2 0x270 PUSH1 0xD DUP4 PUSH2 0x18A JUMP JUMPDEST SWAP2 POP PUSH2 0x27B DUP3 PUSH2 0x23A JUMP JUMPDEST PUSH1 0x20 DUP3 ADD SWAP1 POP SWAP2 SWAP1 POP JUMP JUMPDEST PUSH1 0x0 PUSH1 0x20 DUP3 ADD SWAP1 POP DUP2 DUP2 SUB PUSH1 0x0 DUP4 ADD MSTORE PUSH2 0x29F DUP2 PUSH2 0x263 JUMP JUMPDEST SWAP1 POP SWAP2 SWAP1 POP JUMP JUMPDEST PUSH1 0x0 PUSH1 0x40 MLOAD SWAP1 POP SWAP1 JUMP JUMPDEST PUSH1 0x0 DUP1 REVERT JUMPDEST PUSH1 0x0 DUP1 REVERT JUMPDEST PUSH1 0x0 DUP1 REVERT JUMPDEST PUSH1 0x0 DUP1 REVERT JUMPDEST PUSH32 0x4E487B7100000000000000000000000000000000000000000000000000000000 PUSH1 0x0 MSTORE PUSH1 0x41 PUSH1 0x4 MSTORE PUSH1 0x24 PUSH1 0x0 REVERT JUMPDEST PUSH2 0x2FC DUP3 PUSH2 0x1CE JUMP JUMPDEST DUP2 ADD DUP2 DUP2 LT PUSH8 0xFFFFFFFFFFFFFFFF DUP3 GT OR ISZERO PUSH2 0x31B JUMPI PUSH2 0x31A PUSH2 0x2C4 JUMP JUMPDEST JUMPDEST DUP1 PUSH1 0x40 MSTORE POP POP POP JUMP JUMPDEST PUSH1 0x0 PUSH2 0x32E PUSH2 0x2A6 JUMP JUMPDEST SWAP1 POP PUSH2 0x33A DUP3 DUP3 PUSH2 0x2F3 JUMP JUMPDEST SWAP2 SWAP1 POP JUMP JUMPDEST PUSH1 0x0 PUSH8 0xFFFFFFFFFFFFFFFF DUP3 GT ISZERO PUSH2 0x35A JUMPI PUSH2 0x359 PUSH2 0x2C4 JUMP JUMPDEST JUMPDEST PUSH2 0x363 DUP3 PUSH2 0x1CE JUMP JUMPDEST SWAP1 POP PUSH1 0x20 DUP2 ADD SWAP1 POP SWAP2 SWAP1 POP JUMP JUMPDEST PUSH1 0x0 PUSH2 0x383 PUSH2 0x37E DUP5 PUSH2 0x33F JUMP JUMPDEST PUSH2 0x324 JUMP JUMPDEST SWAP1 POP DUP3 DUP2 MSTORE PUSH1 0x20 DUP2 ADD DUP5 DUP5 DUP5 ADD GT ISZERO PUSH2 0x39F JUMPI PUSH2 0x39E PUSH2 0x2BF JUMP JUMPDEST JUMPDEST PUSH2 0x3AA DUP5 DUP3 DUP6 PUSH2 0x19B JUMP JUMPDEST POP SWAP4 SWAP3 POP POP POP JUMP JUMPDEST PUSH1 0x0 DUP3 PUSH1 0x1F DUP4 ADD SLT PUSH2 0x3C7 JUMPI PUSH2 0x3C6 PUSH2 0x2BA JUMP JUMPDEST JUMPDEST DUP2 MLOAD PUSH2 0x3D7 DUP5 DUP3 PUSH1 0x20 DUP7 ADD PUSH2 0x370 JUMP JUMPDEST SWAP2 POP POP SWAP3 SWAP2 POP POP JUMP JUMPDEST PUSH1 0x0 PUSH1 0x20 DUP3 DUP5 SUB SLT ISZERO PUSH2 0x3F6 JUMPI PUSH2 0x3F5 PUSH2 0x2B0 JUMP JUMPDEST JUMPDEST PUSH1 0x0 DUP3 ADD MLOAD PUSH8 0xFFFFFFFFFFFFFFFF DUP2 GT ISZERO PUSH2 0x414 JUMPI PUSH2 0x413 PUSH2 0x2B5 JUMP JUMPDEST JUMPDEST PUSH2 0x420 DUP5 DUP3 DUP6 ADD PUSH2 0x3B2 JUMP JUMPDEST SWAP2 POP POP SWAP3 SWAP2 POP POP JUMP INVALID LOG2 PUSH5 0x6970667358 0x22 SLT KECCAK256 SSTORE 0xB7 0x5D 0xC9 DUP12 INVALID SWAP3 DUP5 0xC7 DUP10 SWAP1 SWAP10 SWAP4 PUSH13 0xD741350BB7177F5C9CBD723CDA GT 0xAB COINBASE 0xE1 SWAP14 PUSH5 0x736F6C6343 STOP ADDMOD 0xC STOP CALLER PUSH1 0x80 PUSH1 0x40 MSTORE CALLVALUE DUP1 ISZERO PUSH2 0x10 JUMPI PUSH1 0x0 DUP1 REVERT JUMPDEST POP PUSH1 0x40 MLOAD PUSH2 0x55B CODESIZE SUB DUP1 PUSH2 0x55B DUP4 CODECOPY DUP2 DUP2 ADD PUSH1 0x40 MSTORE DUP2 ADD SWAP1 PUSH2 0x32 SWAP2 SWAP1 PUSH2 0x270 JUMP JUMPDEST DUP1 PUSH1 0x0 SWAP1 DUP1 MLOAD SWAP1 PUSH1 0x20 ADD SWAP1 PUSH2 0x48 SWAP3 SWAP2 SWAP1 PUSH2 0x4F JUMP JUMPDEST POP POP PUSH2 0x31A JUMP JUMPDEST DUP3 DUP1 SLOAD PUSH2 0x5B SWAP1 PUSH2 0x2E8 JUMP JUMPDEST SWAP1 PUSH1 0x0 MSTORE PUSH1 0x20 PUSH1 0x0 KECCAK256 SWAP1 PUSH1 0x1F ADD PUSH1 0x20 SWAP1 DIV DUP2 ADD SWAP3 DUP3 PUSH2 0x7D JUMPI PUSH1 0x0 DUP6 SSTORE PUSH2 0xC4 JUMP JUMPDEST DUP3 PUSH1 0x1F LT PUSH2 0x96 JUMPI DUP1 MLOAD PUSH1 0xFF NOT AND DUP4 DUP1 ADD OR DUP6 SSTORE PUSH2 0xC4 JUMP JUMPDEST DUP3 DUP1 ADD PUSH1 0x1 ADD DUP6 SSTORE DUP3 ISZERO PUSH2 0xC4 JUMPI SWAP2 DUP3 ADD JUMPDEST DUP3 DUP2 GT ISZERO PUSH2 0xC3 JUMPI DUP3 MLOAD DUP3 SSTORE SWAP2 PUSH1 0x20 ADD SWAP2 SWAP1 PUSH1 0x1 ADD SWAP1 PUSH2 0xA8 JUMP JUMPDEST JUMPDEST POP SWAP1 POP PUSH2 0xD1 SWAP2 SWAP1 PUSH2 0xD5 JUMP JUMPDEST POP SWAP1 JUMP JUMPDEST JUMPDEST DUP1 DUP3 GT ISZERO PUSH2 0xEE JUMPI PUSH1 0x0 DUP2 PUSH1 0x0 SWAP1 SSTORE POP PUSH1 0x1 ADD PUSH2 0xD6 JUMP JUMPDEST POP SWAP1 JUMP JUMPDEST PUSH1 0x0 PUSH1 0x40 MLOAD SWAP1 POP SWAP1 JUMP JUMPDEST PUSH1 0x0 DUP1 REVERT JUMPDEST PUSH1 0x0 DUP1 REVERT JUMPDEST PUSH1 0x0 DUP1 REVERT JUMPDEST PUSH1 0x0 DUP1 REVERT JUMPDEST PUSH1 0x0 PUSH1 0x1F NOT PUSH1 0x1F DUP4 ADD AND SWAP1 POP SWAP2 SWAP1 POP JUMP JUMPDEST PUSH32 0x4E487B7100000000000000000000000000000000000000000000000000000000 PUSH1 0x0 MSTORE PUSH1 0x41 PUSH1 0x4 MSTORE PUSH1 0x24 PUSH1 0x0 REVERT JUMPDEST PUSH2 0x159 DUP3 PUSH2 0x110 JUMP JUMPDEST DUP2 ADD DUP2 DUP2 LT PUSH8 0xFFFFFFFFFFFFFFFF DUP3 GT OR ISZERO PUSH2 0x178 JUMPI PUSH2 0x177 PUSH2 0x121 JUMP JUMPDEST JUMPDEST DUP1 PUSH1 0x40 MSTORE POP POP POP JUMP JUMPDEST PUSH1 0x0 PUSH2 0x18B PUSH2 0xF2 JUMP JUMPDEST SWAP1 POP PUSH2 0x197 DUP3 DUP3 PUSH2 0x150 JUMP JUMPDEST SWAP2 SWAP1 POP JUMP JUMPDEST PUSH1 0x0 PUSH8 0xFFFFFFFFFFFFFFFF DUP3 GT ISZERO PUSH2 0x1B7 JUMPI PUSH2 0x1B6 PUSH2 0x121 JUMP JUMPDEST JUMPDEST PUSH2 0x1C0 DUP3 PUSH2 0x110 JUMP JUMPDEST SWAP1 POP PUSH1 0x20 DUP2 ADD SWAP1 POP SWAP2 SWAP1 POP JUMP JUMPDEST PUSH1 0x0 JUMPDEST DUP4 DUP2 LT ISZERO PUSH2 0x1EB JUMPI DUP1 DUP3 ADD MLOAD DUP2 DUP5 ADD MSTORE PUSH1 0x20 DUP2 ADD SWAP1 POP PUSH2 0x1D0 JUMP JUMPDEST DUP4 DUP2 GT ISZERO PUSH2 0x1FA JUMPI PUSH1 0x0 DUP5 DUP5 ADD MSTORE JUMPDEST POP POP POP POP JUMP JUMPDEST PUSH1 0x0 PUSH2 0x213 PUSH2 0x20E DUP5 PUSH2 0x19C JUMP JUMPDEST PUSH2 0x181 JUMP JUMPDEST SWAP1 POP DUP3 DUP2 MSTORE PUSH1 0x20 DUP2 ADD DUP5 DUP5 DUP5 ADD GT ISZERO PUSH2 0x22F JUMPI PUSH2 0x22E PUSH2 0x10B JUMP JUMPDEST JUMPDEST PUSH2 0x23A DUP5 DUP3 DUP6 PUSH2 0x1CD JUMP JUMPDEST POP SWAP4 SWAP3 POP POP POP JUMP JUMPDEST PUSH1 0x0 DUP3 PUSH1 0x1F DUP4 ADD SLT PUSH2 0x257 JUMPI PUSH2 0x256 PUSH2 0x106 JUMP JUMPDEST JUMPDEST DUP2 MLOAD PUSH2 0x267 DUP5 DUP3 PUSH1 0x20 DUP7 ADD PUSH2 0x200 JUMP JUMPDEST SWAP2 POP POP SWAP3 SWAP2 POP POP JUMP JUMPDEST PUSH1 0x0 PUSH1 0x20 DUP3 DUP5 SUB SLT ISZERO PUSH2 0x286 JUMPI PUSH2 0x285 PUSH2 0xFC JUMP JUMPDEST JUMPDEST PUSH1 0x0 DUP3 ADD MLOAD PUSH8 0xFFFFFFFFFFFFFFFF DUP2 GT ISZERO PUSH2 0x2A4 JUMPI PUSH2 0x2A3 PUSH2 0x101 JUMP JUMPDEST JUMPDEST PUSH2 0x2B0 DUP5 DUP3 DUP6 ADD PUSH2 0x242 JUMP JUMPDEST SWAP2 POP POP SWAP3 SWAP2 POP POP JUMP JUMPDEST PUSH32 0x4E487B7100000000000000000000000000000000000000000000000000000000 PUSH1 0x0 MSTORE PUSH1 0x22 PUSH1 0x4 MSTORE PUSH1 0x24 PUSH1 0x0 REVERT JUMPDEST PUSH1 0x0 PUSH1 0x2 DUP3 DIV SWAP1 POP PUSH1 0x1 DUP3 AND DUP1 PUSH2 0x300 JUMPI PUSH1 0x7F DUP3 AND SWAP2 POP JUMPDEST PUSH1 0x20 DUP3 LT DUP2 EQ ISZERO PUSH2 0x314 JUMPI PUSH2 0x313 PUSH2 0x2B9 JUMP JUMPDEST JUMPDEST POP SWAP2 SWAP1 POP JUMP JUMPDEST PUSH2 0x232 DUP1 PUSH2 0x329 PUSH1 0x0 CODECOPY PUSH1 0x0 RETURN INVALID PUSH1 0x80 PUSH1 0x40 MSTORE CALLVALUE DUP1 ISZERO PUSH2 0x10 JUMPI PUSH1 0x0 DUP1 REVERT JUMPDEST POP PUSH1 0x4 CALLDATASIZE LT PUSH2 0x2B JUMPI PUSH1 0x0 CALLDATALOAD PUSH1 0xE0 SHR DUP1 PUSH4 0x5B9FDC30 EQ PUSH2 0x30 JUMPI JUMPDEST PUSH1 0x0 DUP1 REVERT JUMPDEST PUSH2 0x38 PUSH2 0x4E JUMP JUMPDEST PUSH1 0x40 MLOAD PUSH2 0x45 SWAP2 SWAP1 PUSH2 0x179 JUMP JUMPDEST PUSH1 0x40 MLOAD DUP1 SWAP2 SUB SWAP1 RETURN JUMPDEST PUSH1 0x60 PUSH1 0x0 DUP1 SLOAD PUSH2 0x5D SWAP1 PUSH2 0x1CA JUMP JUMPDEST DUP1 PUSH1 0x1F ADD PUSH1 0x20 DUP1 SWAP2 DIV MUL PUSH1 0x20 ADD PUSH1 0x40 MLOAD SWAP1 DUP2 ADD PUSH1 0x40 MSTORE DUP1 SWAP3 SWAP2 SWAP1 DUP2 DUP2 MSTORE PUSH1 0x20 ADD DUP3 DUP1 SLOAD PUSH2 0x89 SWAP1 PUSH2 0x1CA JUMP JUMPDEST DUP1 ISZERO PUSH2 0xD6 JUMPI DUP1 PUSH1 0x1F LT PUSH2 0xAB JUMPI PUSH2 0x100 DUP1 DUP4 SLOAD DIV MUL DUP4 MSTORE SWAP2 PUSH1 0x20 ADD SWAP2 PUSH2 0xD6 JUMP JUMPDEST DUP3 ADD SWAP2 SWAP1 PUSH1 0x0 MSTORE PUSH1 0x20 PUSH1 0x0 KECCAK256 SWAP1 JUMPDEST DUP2 SLOAD DUP2 MSTORE SWAP1 PUSH1 0x1 ADD SWAP1 PUSH1 0x20 ADD DUP1 DUP4 GT PUSH2 0xB9 JUMPI DUP3 SWAP1 SUB PUSH1 0x1F AND DUP3 ADD SWAP2 JUMPDEST POP POP POP POP POP SWAP1 POP SWAP1 JUMP JUMPDEST PUSH1 0x0 DUP2 MLOAD SWAP1 POP SWAP2 SWAP1 POP JUMP JUMPDEST PUSH1 0x0 DUP3 DUP3 MSTORE PUSH1 0x20 DUP3 ADD SWAP1 POP SWAP3 SWAP2 POP POP JUMP JUMPDEST PUSH1 0x0 JUMPDEST DUP4 DUP2 LT ISZERO PUSH2 0x11A JUMPI DUP1 DUP3 ADD MLOAD DUP2 DUP5 ADD MSTORE PUSH1 0x20 DUP2 ADD SWAP1 POP PUSH2 0xFF JUMP JUMPDEST DUP4 DUP2 GT ISZERO PUSH2 0x129 JUMPI PUSH1 0x0 DUP5 DUP5 ADD MSTORE JUMPDEST POP POP POP POP JUMP JUMPDEST PUSH1 0x0 PUSH1 0x1F NOT PUSH1 0x1F DUP4 ADD AND SWAP1 POP SWAP2 SWAP1 POP JUMP JUMPDEST PUSH1 0x0 PUSH2 0x14B DUP3 PUSH2 0xE0 JUMP JUMPDEST PUSH2 0x155 DUP2 DUP6 PUSH2 0xEB JUMP JUMPDEST SWAP4 POP PUSH2 0x165 DUP2 DUP6 PUSH1 0x20 DUP7 ADD PUSH2 0xFC JUMP JUMPDEST PUSH2 0x16E DUP2 PUSH2 0x12F JUMP JUMPDEST DUP5 ADD SWAP2 POP POP SWAP3 SWAP2 POP POP JUMP JUMPDEST PUSH1 0x0 PUSH1 0x20 DUP3 ADD SWAP1 POP DUP2 DUP2 SUB PUSH1 0x0 DUP4 ADD MSTORE PUSH2 0x193 DUP2 DUP5 PUSH2 0x140 JUMP JUMPDEST SWAP1 POP SWAP3 SWAP2 POP POP JUMP JUMPDEST PUSH32 0x4E487B7100000000000000000000000000000000000000000000000000000000 PUSH1 0x0 MSTORE PUSH1 0x22 PUSH1 0x4 MSTORE PUSH1 0x24 PUSH1 0x0 REVERT JUMPDEST PUSH1 0x0 PUSH1 0x2 DUP3 DIV SWAP1 POP PUSH1 0x1 DUP3 AND DUP1 PUSH2 0x1E2 JUMPI PUSH1 0x7F DUP3 AND SWAP2 POP JUMPDEST PUSH1 0x20 DUP3 LT DUP2 EQ ISZERO PUSH2 0x1F6 JUMPI PUSH2 0x1F5 PUSH2 0x19B JUMP JUMPDEST JUMPDEST POP SWAP2 SWAP1 POP JUMP INVALID LOG2 PUSH5 0x6970667358 0x22 SLT KECCAK256 0x2C DUP14 0xBC 0xDC SWAP12 0x2B ORIGIN DUP15 SWAP7 PUSH24 0x4A4A96058E84882424DAEC98D5F80EE1D5F640C9C1246473 PUSH16 0x6C634300080C00330000000000000000 "
				},
				"gasEstimates": {
					"creation": {
						"codeDepositCost": "223800",
						"executionCost": "infinite",
						"totalCost": "infinite"
					},
					"external": {
						"getSecret()": "infinite"
					}
				},
				"methodIdentifiers": {
					"getSecret()": "5b9fdc30"
				}
			},
			"userdoc": {
				"kind": "user",
				"methods": {},
				"version": 1
			}
		}
	}
}