{
	"Contracts/Loops.sol": {
		"myContract": {
			"abi": [
				{
					"inputs": [],
					"name": "countEvenNumbers",
					"outputs": [
						{
							"internalType": "uint256",
							"name": "",
							"type": "uint256"
						}
					],
					"stateMutability": "nonpayable",
					"type": "function"
				},
				{
					"inputs": [],
					"name": "isEvenNumber",
					"outputs": [
						{
							"internalType": "bool",
							"name": "",
							"type": "bool"
						}
					],
					"stateMutability": "view",
					"type": "function"
				},
				{
					"inputs": [
						{
							"internalType": "uint256",
							"name": "",
							"type": "uint256"
						}
					],
					"name": "numbers",
					"outputs": [
						{
							"internalType": "uint256",
							"name": "",
							"type": "uint256"
						}
					],
					"stateMutability": "view",
					"type": "function"
				}
			],
			"devdoc": {
				"kind": "dev",
				"methods": {},
				"version": 1
			},
			"evm": {
				"assembly": "    /* \"Contracts/Loops.sol\":63:680  contract myContract {... */\n  mstore(0x40, 0x80)\n    /* \"Contracts/Loops.sol\":118:164  uint[] public numbers = [1,2,3,4,5,6,7,8,9,10] */\n  mload(0x40)\n  dup1\n  0x0140\n  add\n  0x40\n  mstore\n  dup1\n    /* \"Contracts/Loops.sol\":143:144  1 */\n  0x01\n    /* \"Contracts/Loops.sol\":118:164  uint[] public numbers = [1,2,3,4,5,6,7,8,9,10] */\n  0xff\n  and\n  dup2\n  mstore\n  0x20\n  add\n    /* \"Contracts/Loops.sol\":145:146  2 */\n  0x02\n    /* \"Contracts/Loops.sol\":118:164  uint[] public numbers = [1,2,3,4,5,6,7,8,9,10] */\n  0xff\n  and\n  dup2\n  mstore\n  0x20\n  add\n    /* \"Contracts/Loops.sol\":147:148  3 */\n  0x03\n    /* \"Contracts/Loops.sol\":118:164  uint[] public numbers = [1,2,3,4,5,6,7,8,9,10] */\n  0xff\n  and\n  dup2\n  mstore\n  0x20\n  add\n    /* \"Contracts/Loops.sol\":149:150  4 */\n  0x04\n    /* \"Contracts/Loops.sol\":118:164  uint[] public numbers = [1,2,3,4,5,6,7,8,9,10] */\n  0xff\n  and\n  dup2\n  mstore\n  0x20\n  add\n    /* \"Contracts/Loops.sol\":151:152  5 */\n  0x05\n    /* \"Contracts/Loops.sol\":118:164  uint[] public numbers = [1,2,3,4,5,6,7,8,9,10] */\n  0xff\n  and\n  dup2\n  mstore\n  0x20\n  add\n    /* \"Contracts/Loops.sol\":153:154  6 */\n  0x06\n    /* \"Contracts/Loops.sol\":118:164  uint[] public numbers = [1,2,3,4,5,6,7,8,9,10] */\n  0xff\n  and\n  dup2\n  mstore\n  0x20\n  add\n    /* \"Contracts/Loops.sol\":155:156  7 */\n  0x07\n    /* \"Contracts/Loops.sol\":118:164  uint[] public numbers = [1,2,3,4,5,6,7,8,9,10] */\n  0xff\n  and\n  dup2\n  mstore\n  0x20\n  add\n    /* \"Contracts/Loops.sol\":157:158  8 */\n  0x08\n    /* \"Contracts/Loops.sol\":118:164  uint[] public numbers = [1,2,3,4,5,6,7,8,9,10] */\n  0xff\n  and\n  dup2\n  mstore\n  0x20\n  add\n    /* \"Contracts/Loops.sol\":159:160  9 */\n  0x09\n    /* \"Contracts/Loops.sol\":118:164  uint[] public numbers = [1,2,3,4,5,6,7,8,9,10] */\n  0xff\n  and\n  dup2\n  mstore\n  0x20\n  add\n    /* \"Contracts/Loops.sol\":161:163  10 */\n  0x0a\n    /* \"Contracts/Loops.sol\":118:164  uint[] public numbers = [1,2,3,4,5,6,7,8,9,10] */\n  0xff\n  and\n  dup2\n  mstore\n  pop\n  0x00\n  swap1\n  0x0a\n  tag_1\n  swap3\n  swap2\n  swap1\n  tag_2\n  jump\t// in\ntag_1:\n  pop\n    /* \"Contracts/Loops.sol\":183:184  0 */\n  0x00\n    /* \"Contracts/Loops.sol\":170:184  uint count = 0 */\n  0x01\n  sstore\n    /* \"Contracts/Loops.sol\":63:680  contract myContract {... */\n  callvalue\n  dup1\n  iszero\n  tag_3\n  jumpi\n  0x00\n  dup1\n  revert\ntag_3:\n  pop\n  jump(tag_4)\ntag_2:\n  dup3\n  dup1\n  sload\n  dup3\n  dup3\n  sstore\n  swap1\n  0x00\n  mstore\n  keccak256(0x00, 0x20)\n  swap1\n  dup2\n  add\n  swap3\n  dup3\n  iszero\n  tag_5\n  jumpi\n  swap2\n  0x20\n  mul\n  dup3\n  add\ntag_6:\n  dup3\n  dup2\n  gt\n  iszero\n  tag_7\n  jumpi\n  dup3\n  mload\n  dup3\n  swap1\n  0xff\n  and\n  swap1\n  sstore\n  swap2\n  0x20\n  add\n  swap2\n  swap1\n  0x01\n  add\n  swap1\n  jump(tag_6)\ntag_7:\ntag_5:\n  pop\n  swap1\n  pop\n  tag_8\n  swap2\n  swap1\n  tag_9\n  jump\t// in\ntag_8:\n  pop\n  swap1\n  jump\t// out\ntag_9:\ntag_10:\n  dup1\n  dup3\n  gt\n  iszero\n  tag_11\n  jumpi\n  0x00\n  dup2\n  0x00\n  swap1\n  sstore\n  pop\n  0x01\n  add\n  jump(tag_10)\ntag_11:\n  pop\n  swap1\n  jump\t// out\ntag_4:\n  dataSize(sub_0)\n  dup1\n  dataOffset(sub_0)\n  0x00\n  codecopy\n  0x00\n  return\nstop\n\nsub_0: assembly {\n        /* \"Contracts/Loops.sol\":63:680  contract myContract {... */\n      mstore(0x40, 0x80)\n      callvalue\n      dup1\n      iszero\n      tag_1\n      jumpi\n      0x00\n      dup1\n      revert\n    tag_1:\n      pop\n      jumpi(tag_2, lt(calldatasize, 0x04))\n      shr(0xe0, calldataload(0x00))\n      dup1\n      0x306d3e02\n      eq\n      tag_3\n      jumpi\n      dup1\n      0xc04fe652\n      eq\n      tag_4\n      jumpi\n      dup1\n      0xd39fa233\n      eq\n      tag_5\n      jumpi\n    tag_2:\n      0x00\n      dup1\n      revert\n        /* \"Contracts/Loops.sol\":460:678  function countEvenNumbers() public returns (uint) {... */\n    tag_3:\n      tag_6\n      tag_7\n      jump\t// in\n    tag_6:\n      mload(0x40)\n      tag_8\n      swap2\n      swap1\n      tag_9\n      jump\t// in\n    tag_8:\n      mload(0x40)\n      dup1\n      swap2\n      sub\n      swap1\n      return\n        /* \"Contracts/Loops.sol\":191:454  function isEvenNumber () public view returns(bool) {... */\n    tag_4:\n      tag_10\n      tag_11\n      jump\t// in\n    tag_10:\n      mload(0x40)\n      tag_12\n      swap2\n      swap1\n      tag_13\n      jump\t// in\n    tag_12:\n      mload(0x40)\n      dup1\n      swap2\n      sub\n      swap1\n      return\n        /* \"Contracts/Loops.sol\":118:164  uint[] public numbers = [1,2,3,4,5,6,7,8,9,10] */\n    tag_5:\n      tag_14\n      0x04\n      dup1\n      calldatasize\n      sub\n      dup2\n      add\n      swap1\n      tag_15\n      swap2\n      swap1\n      tag_16\n      jump\t// in\n    tag_15:\n      tag_17\n      jump\t// in\n    tag_14:\n      mload(0x40)\n      tag_18\n      swap2\n      swap1\n      tag_9\n      jump\t// in\n    tag_18:\n      mload(0x40)\n      dup1\n      swap2\n      sub\n      swap1\n      return\n        /* \"Contracts/Loops.sol\":460:678  function countEvenNumbers() public returns (uint) {... */\n    tag_7:\n        /* \"Contracts/Loops.sol\":504:508  uint */\n      0x00\n        /* \"Contracts/Loops.sol\":525:531  uint i */\n      dup1\n        /* \"Contracts/Loops.sol\":534:535  0 */\n      0x00\n        /* \"Contracts/Loops.sol\":525:535  uint i = 0 */\n      swap1\n      pop\n        /* \"Contracts/Loops.sol\":520:650  for (uint i = 0; i < numbers.length; i++) {... */\n    tag_20:\n        /* \"Contracts/Loops.sol\":541:548  numbers */\n      0x00\n        /* \"Contracts/Loops.sol\":541:555  numbers.length */\n      dup1\n      sload\n      swap1\n      pop\n        /* \"Contracts/Loops.sol\":537:538  i */\n      dup2\n        /* \"Contracts/Loops.sol\":537:555  i < numbers.length */\n      lt\n        /* \"Contracts/Loops.sol\":520:650  for (uint i = 0; i < numbers.length; i++) {... */\n      iszero\n      tag_21\n      jumpi\n        /* \"Contracts/Loops.sol\":598:599  0 */\n      0x00\n        /* \"Contracts/Loops.sol\":593:594  2 */\n      0x02\n        /* \"Contracts/Loops.sol\":580:587  numbers */\n      0x00\n        /* \"Contracts/Loops.sol\":588:589  i */\n      dup4\n        /* \"Contracts/Loops.sol\":580:590  numbers[i] */\n      dup2\n      sload\n      dup2\n      lt\n      tag_23\n      jumpi\n      tag_24\n      tag_25\n      jump\t// in\n    tag_24:\n    tag_23:\n      swap1\n      0x00\n      mstore\n      keccak256(0x00, 0x20)\n      add\n      sload\n        /* \"Contracts/Loops.sol\":580:594  numbers[i] % 2 */\n      tag_27\n      swap2\n      swap1\n      tag_28\n      jump\t// in\n    tag_27:\n        /* \"Contracts/Loops.sol\":580:599  numbers[i] % 2 == 0 */\n      eq\n        /* \"Contracts/Loops.sol\":576:640  if (numbers[i] % 2 == 0){... */\n      iszero\n      tag_29\n      jumpi\n        /* \"Contracts/Loops.sol\":618:623  count */\n      0x01\n      0x00\n        /* \"Contracts/Loops.sol\":618:625  count++ */\n      dup2\n      sload\n      dup1\n      swap3\n      swap2\n      swap1\n      tag_30\n      swap1\n      tag_31\n      jump\t// in\n    tag_30:\n      swap2\n      swap1\n      pop\n      sstore\n      pop\n        /* \"Contracts/Loops.sol\":576:640  if (numbers[i] % 2 == 0){... */\n    tag_29:\n        /* \"Contracts/Loops.sol\":557:560  i++ */\n      dup1\n      dup1\n      tag_32\n      swap1\n      tag_31\n      jump\t// in\n    tag_32:\n      swap2\n      pop\n      pop\n        /* \"Contracts/Loops.sol\":520:650  for (uint i = 0; i < numbers.length; i++) {... */\n      jump(tag_20)\n    tag_21:\n      pop\n        /* \"Contracts/Loops.sol\":666:671  count */\n      sload(0x01)\n        /* \"Contracts/Loops.sol\":659:671  return count */\n      swap1\n      pop\n        /* \"Contracts/Loops.sol\":460:678  function countEvenNumbers() public returns (uint) {... */\n      swap1\n      jump\t// out\n        /* \"Contracts/Loops.sol\":191:454  function isEvenNumber () public view returns(bool) {... */\n    tag_11:\n        /* \"Contracts/Loops.sol\":236:240  bool */\n      0x00\n        /* \"Contracts/Loops.sol\":257:263  uint i */\n      dup1\n        /* \"Contracts/Loops.sol\":266:267  0 */\n      0x00\n        /* \"Contracts/Loops.sol\":257:267  uint i = 0 */\n      swap1\n      pop\n        /* \"Contracts/Loops.sol\":273:280  numbers */\n      0x00\n        /* \"Contracts/Loops.sol\":273:287  numbers.length */\n      dup1\n      sload\n      swap1\n      pop\n        /* \"Contracts/Loops.sol\":269:270  i */\n      dup2\n        /* \"Contracts/Loops.sol\":269:287  i < numbers.length */\n      lt\n        /* \"Contracts/Loops.sol\":252:448  for (uint i = 0; i < numbers.length; i++){... */\n      iszero\n      tag_35\n      jumpi\n        /* \"Contracts/Loops.sol\":329:330  0 */\n      0x00\n        /* \"Contracts/Loops.sol\":324:325  2 */\n      0x02\n        /* \"Contracts/Loops.sol\":311:318  numbers */\n      0x00\n        /* \"Contracts/Loops.sol\":319:320  i */\n      dup4\n        /* \"Contracts/Loops.sol\":311:321  numbers[i] */\n      dup2\n      sload\n      dup2\n      lt\n      tag_37\n      jumpi\n      tag_38\n      tag_25\n      jump\t// in\n    tag_38:\n    tag_37:\n      swap1\n      0x00\n      mstore\n      keccak256(0x00, 0x20)\n      add\n      sload\n        /* \"Contracts/Loops.sol\":311:325  numbers[i] % 2 */\n      tag_40\n      swap2\n      swap1\n      tag_28\n      jump\t// in\n    tag_40:\n        /* \"Contracts/Loops.sol\":311:330  numbers[i] % 2 == 0 */\n      eq\n        /* \"Contracts/Loops.sol\":307:438  if (numbers[i] % 2 == 0){... */\n      iszero\n      tag_41\n      jumpi\n        /* \"Contracts/Loops.sol\":356:360  true */\n      0x01\n        /* \"Contracts/Loops.sol\":349:360  return true */\n      swap2\n      pop\n      pop\n      jump(tag_33)\n        /* \"Contracts/Loops.sol\":307:438  if (numbers[i] % 2 == 0){... */\n    tag_41:\n        /* \"Contracts/Loops.sol\":418:423  false */\n      0x00\n        /* \"Contracts/Loops.sol\":411:423  return false */\n      swap2\n      pop\n      pop\n      jump(tag_33)\n        /* \"Contracts/Loops.sol\":252:448  for (uint i = 0; i < numbers.length; i++){... */\n    tag_35:\n      pop\n        /* \"Contracts/Loops.sol\":191:454  function isEvenNumber () public view returns(bool) {... */\n    tag_33:\n      swap1\n      jump\t// out\n        /* \"Contracts/Loops.sol\":118:164  uint[] public numbers = [1,2,3,4,5,6,7,8,9,10] */\n    tag_17:\n      0x00\n      dup2\n      dup2\n      sload\n      dup2\n      lt\n      tag_44\n      jumpi\n      0x00\n      dup1\n      revert\n    tag_44:\n      swap1\n      0x00\n      mstore\n      keccak256(0x00, 0x20)\n      add\n      0x00\n      swap2\n      pop\n      swap1\n      pop\n      sload\n      dup2\n      jump\t// out\n        /* \"#utility.yul\":7:84   */\n    tag_46:\n        /* \"#utility.yul\":44:51   */\n      0x00\n        /* \"#utility.yul\":73:78   */\n      dup2\n        /* \"#utility.yul\":62:78   */\n      swap1\n      pop\n        /* \"#utility.yul\":7:84   */\n      swap2\n      swap1\n      pop\n      jump\t// out\n        /* \"#utility.yul\":90:208   */\n    tag_47:\n        /* \"#utility.yul\":177:201   */\n      tag_60\n        /* \"#utility.yul\":195:200   */\n      dup2\n        /* \"#utility.yul\":177:201   */\n      tag_46\n      jump\t// in\n    tag_60:\n        /* \"#utility.yul\":172:175   */\n      dup3\n        /* \"#utility.yul\":165:202   */\n      mstore\n        /* \"#utility.yul\":90:208   */\n      pop\n      pop\n      jump\t// out\n        /* \"#utility.yul\":214:436   */\n    tag_9:\n        /* \"#utility.yul\":307:311   */\n      0x00\n        /* \"#utility.yul\":345:347   */\n      0x20\n        /* \"#utility.yul\":334:343   */\n      dup3\n        /* \"#utility.yul\":330:348   */\n      add\n        /* \"#utility.yul\":322:348   */\n      swap1\n      pop\n        /* \"#utility.yul\":358:429   */\n      tag_62\n        /* \"#utility.yul\":426:427   */\n      0x00\n        /* \"#utility.yul\":415:424   */\n      dup4\n        /* \"#utility.yul\":411:428   */\n      add\n        /* \"#utility.yul\":402:408   */\n      dup5\n        /* \"#utility.yul\":358:429   */\n      tag_47\n      jump\t// in\n    tag_62:\n        /* \"#utility.yul\":214:436   */\n      swap3\n      swap2\n      pop\n      pop\n      jump\t// out\n        /* \"#utility.yul\":442:532   */\n    tag_48:\n        /* \"#utility.yul\":476:483   */\n      0x00\n        /* \"#utility.yul\":519:524   */\n      dup2\n        /* \"#utility.yul\":512:525   */\n      iszero\n        /* \"#utility.yul\":505:526   */\n      iszero\n        /* \"#utility.yul\":494:526   */\n      swap1\n      pop\n        /* \"#utility.yul\":442:532   */\n      swap2\n      swap1\n      pop\n      jump\t// out\n        /* \"#utility.yul\":538:647   */\n    tag_49:\n        /* \"#utility.yul\":619:640   */\n      tag_65\n        /* \"#utility.yul\":634:639   */\n      dup2\n        /* \"#utility.yul\":619:640   */\n      tag_48\n      jump\t// in\n    tag_65:\n        /* \"#utility.yul\":614:617   */\n      dup3\n        /* \"#utility.yul\":607:641   */\n      mstore\n        /* \"#utility.yul\":538:647   */\n      pop\n      pop\n      jump\t// out\n        /* \"#utility.yul\":653:863   */\n    tag_13:\n        /* \"#utility.yul\":740:744   */\n      0x00\n        /* \"#utility.yul\":778:780   */\n      0x20\n        /* \"#utility.yul\":767:776   */\n      dup3\n        /* \"#utility.yul\":763:781   */\n      add\n        /* \"#utility.yul\":755:781   */\n      swap1\n      pop\n        /* \"#utility.yul\":791:856   */\n      tag_67\n        /* \"#utility.yul\":853:854   */\n      0x00\n        /* \"#utility.yul\":842:851   */\n      dup4\n        /* \"#utility.yul\":838:855   */\n      add\n        /* \"#utility.yul\":829:835   */\n      dup5\n        /* \"#utility.yul\":791:856   */\n      tag_49\n      jump\t// in\n    tag_67:\n        /* \"#utility.yul\":653:863   */\n      swap3\n      swap2\n      pop\n      pop\n      jump\t// out\n        /* \"#utility.yul\":950:1067   */\n    tag_51:\n        /* \"#utility.yul\":1059:1060   */\n      0x00\n        /* \"#utility.yul\":1056:1057   */\n      dup1\n        /* \"#utility.yul\":1049:1061   */\n      revert\n        /* \"#utility.yul\":1196:1318   */\n    tag_53:\n        /* \"#utility.yul\":1269:1293   */\n      tag_72\n        /* \"#utility.yul\":1287:1292   */\n      dup2\n        /* \"#utility.yul\":1269:1293   */\n      tag_46\n      jump\t// in\n    tag_72:\n        /* \"#utility.yul\":1262:1267   */\n      dup2\n        /* \"#utility.yul\":1259:1294   */\n      eq\n        /* \"#utility.yul\":1249:1312   */\n      tag_73\n      jumpi\n        /* \"#utility.yul\":1308:1309   */\n      0x00\n        /* \"#utility.yul\":1305:1306   */\n      dup1\n        /* \"#utility.yul\":1298:1310   */\n      revert\n        /* \"#utility.yul\":1249:1312   */\n    tag_73:\n        /* \"#utility.yul\":1196:1318   */\n      pop\n      jump\t// out\n        /* \"#utility.yul\":1324:1463   */\n    tag_54:\n        /* \"#utility.yul\":1370:1375   */\n      0x00\n        /* \"#utility.yul\":1408:1414   */\n      dup2\n        /* \"#utility.yul\":1395:1415   */\n      calldataload\n        /* \"#utility.yul\":1386:1415   */\n      swap1\n      pop\n        /* \"#utility.yul\":1424:1457   */\n      tag_75\n        /* \"#utility.yul\":1451:1456   */\n      dup2\n        /* \"#utility.yul\":1424:1457   */\n      tag_53\n      jump\t// in\n    tag_75:\n        /* \"#utility.yul\":1324:1463   */\n      swap3\n      swap2\n      pop\n      pop\n      jump\t// out\n        /* \"#utility.yul\":1469:1798   */\n    tag_16:\n        /* \"#utility.yul\":1528:1534   */\n      0x00\n        /* \"#utility.yul\":1577:1579   */\n      0x20\n        /* \"#utility.yul\":1565:1574   */\n      dup3\n        /* \"#utility.yul\":1556:1563   */\n      dup5\n        /* \"#utility.yul\":1552:1575   */\n      sub\n        /* \"#utility.yul\":1548:1580   */\n      slt\n        /* \"#utility.yul\":1545:1664   */\n      iszero\n      tag_77\n      jumpi\n        /* \"#utility.yul\":1583:1662   */\n      tag_78\n      tag_51\n      jump\t// in\n    tag_78:\n        /* \"#utility.yul\":1545:1664   */\n    tag_77:\n        /* \"#utility.yul\":1703:1704   */\n      0x00\n        /* \"#utility.yul\":1728:1781   */\n      tag_79\n        /* \"#utility.yul\":1773:1780   */\n      dup5\n        /* \"#utility.yul\":1764:1770   */\n      dup3\n        /* \"#utility.yul\":1753:1762   */\n      dup6\n        /* \"#utility.yul\":1749:1771   */\n      add\n        /* \"#utility.yul\":1728:1781   */\n      tag_54\n      jump\t// in\n    tag_79:\n        /* \"#utility.yul\":1718:1781   */\n      swap2\n      pop\n        /* \"#utility.yul\":1674:1791   */\n      pop\n        /* \"#utility.yul\":1469:1798   */\n      swap3\n      swap2\n      pop\n      pop\n      jump\t// out\n        /* \"#utility.yul\":1804:1984   */\n    tag_25:\n        /* \"#utility.yul\":1852:1929   */\n      0x4e487b7100000000000000000000000000000000000000000000000000000000\n        /* \"#utility.yul\":1849:1850   */\n      0x00\n        /* \"#utility.yul\":1842:1930   */\n      mstore\n        /* \"#utility.yul\":1949:1953   */\n      0x32\n        /* \"#utility.yul\":1946:1947   */\n      0x04\n        /* \"#utility.yul\":1939:1954   */\n      mstore\n        /* \"#utility.yul\":1973:1977   */\n      0x24\n        /* \"#utility.yul\":1970:1971   */\n      0x00\n        /* \"#utility.yul\":1963:1978   */\n      revert\n        /* \"#utility.yul\":1990:2170   */\n    tag_55:\n        /* \"#utility.yul\":2038:2115   */\n      0x4e487b7100000000000000000000000000000000000000000000000000000000\n        /* \"#utility.yul\":2035:2036   */\n      0x00\n        /* \"#utility.yul\":2028:2116   */\n      mstore\n        /* \"#utility.yul\":2135:2139   */\n      0x12\n        /* \"#utility.yul\":2132:2133   */\n      0x04\n        /* \"#utility.yul\":2125:2140   */\n      mstore\n        /* \"#utility.yul\":2159:2163   */\n      0x24\n        /* \"#utility.yul\":2156:2157   */\n      0x00\n        /* \"#utility.yul\":2149:2164   */\n      revert\n        /* \"#utility.yul\":2176:2352   */\n    tag_28:\n        /* \"#utility.yul\":2208:2209   */\n      0x00\n        /* \"#utility.yul\":2225:2245   */\n      tag_83\n        /* \"#utility.yul\":2243:2244   */\n      dup3\n        /* \"#utility.yul\":2225:2245   */\n      tag_46\n      jump\t// in\n    tag_83:\n        /* \"#utility.yul\":2220:2245   */\n      swap2\n      pop\n        /* \"#utility.yul\":2259:2279   */\n      tag_84\n        /* \"#utility.yul\":2277:2278   */\n      dup4\n        /* \"#utility.yul\":2259:2279   */\n      tag_46\n      jump\t// in\n    tag_84:\n        /* \"#utility.yul\":2254:2279   */\n      swap3\n      pop\n        /* \"#utility.yul\":2298:2299   */\n      dup3\n        /* \"#utility.yul\":2288:2323   */\n      tag_85\n      jumpi\n        /* \"#utility.yul\":2303:2321   */\n      tag_86\n      tag_55\n      jump\t// in\n    tag_86:\n        /* \"#utility.yul\":2288:2323   */\n    tag_85:\n        /* \"#utility.yul\":2344:2345   */\n      dup3\n        /* \"#utility.yul\":2341:2342   */\n      dup3\n        /* \"#utility.yul\":2337:2346   */\n      mod\n        /* \"#utility.yul\":2332:2346   */\n      swap1\n      pop\n        /* \"#utility.yul\":2176:2352   */\n      swap3\n      swap2\n      pop\n      pop\n      jump\t// out\n        /* \"#utility.yul\":2358:2538   */\n    tag_56:\n        /* \"#utility.yul\":2406:2483   */\n      0x4e487b7100000000000000000000000000000000000000000000000000000000\n        /* \"#utility.yul\":2403:2404   */\n      0x00\n        /* \"#utility.yul\":2396:2484   */\n      mstore\n        /* \"#utility.yul\":2503:2507   */\n      0x11\n        /* \"#utility.yul\":2500:2501   */\n      0x04\n        /* \"#utility.yul\":2493:2508   */\n      mstore\n        /* \"#utility.yul\":2527:2531   */\n      0x24\n        /* \"#utility.yul\":2524:2525   */\n      0x00\n        /* \"#utility.yul\":2517:2532   */\n      revert\n        /* \"#utility.yul\":2544:2777   */\n    tag_31:\n        /* \"#utility.yul\":2583:2586   */\n      0x00\n        /* \"#utility.yul\":2606:2630   */\n      tag_89\n        /* \"#utility.yul\":2624:2629   */\n      dup3\n        /* \"#utility.yul\":2606:2630   */\n      tag_46\n      jump\t// in\n    tag_89:\n        /* \"#utility.yul\":2597:2630   */\n      swap2\n      pop\n        /* \"#utility.yul\":2652:2718   */\n      0xffffffffffffffffffffffffffffffffffffffffffffffffffffffffffffffff\n        /* \"#utility.yul\":2645:2650   */\n      dup3\n        /* \"#utility.yul\":2642:2719   */\n      eq\n        /* \"#utility.yul\":2639:2742   */\n      iszero\n      tag_90\n      jumpi\n        /* \"#utility.yul\":2722:2740   */\n      tag_91\n      tag_56\n      jump\t// in\n    tag_91:\n        /* \"#utility.yul\":2639:2742   */\n    tag_90:\n        /* \"#utility.yul\":2769:2770   */\n      0x01\n        /* \"#utility.yul\":2762:2767   */\n      dup3\n        /* \"#utility.yul\":2758:2771   */\n      add\n        /* \"#utility.yul\":2751:2771   */\n      swap1\n      pop\n        /* \"#utility.yul\":2544:2777   */\n      swap2\n      swap1\n      pop\n      jump\t// out\n\n    auxdata: 0xa26469706673582212208548a76f6fe413b6e90299d65ba1c40f03b527c62e7a282bfc68a122f4049aeb64736f6c634300080c0033\n}\n",
				"bytecode": {
					"linkReferences": {},
					"object": "6080604052604051806101400160405280600160ff168152602001600260ff168152602001600360ff168152602001600460ff168152602001600560ff168152602001600660ff168152602001600760ff168152602001600860ff168152602001600960ff168152602001600a60ff16815250600090600a61008292919061009a565b50600060015534801561009457600080fd5b50610109565b8280548282559060005260206000209081019282156100db579160200282015b828111156100da578251829060ff169055916020019190600101906100ba565b5b5090506100e891906100ec565b5090565b5b808211156101055760008160009055506001016100ed565b5090565b6103b8806101186000396000f3fe608060405234801561001057600080fd5b50600436106100415760003560e01c8063306d3e0214610046578063c04fe65214610064578063d39fa23314610082575b600080fd5b61004e6100b2565b60405161005b91906101cc565b60405180910390f35b61006c61012f565b6040516100799190610202565b60405180910390f35b61009c6004803603810190610097919061024e565b61018f565b6040516100a991906101cc565b60405180910390f35b600080600090505b6000805490508110156101265760006002600083815481106100df576100de61027b565b5b90600052602060002001546100f491906102d9565b1415610113576001600081548092919061010d90610339565b91905055505b808061011e90610339565b9150506100ba565b50600154905090565b6000806000905060008054905081101561018a57600060026000838154811061015b5761015a61027b565b5b906000526020600020015461017091906102d9565b141561018057600191505061018c565b600091505061018c565b505b90565b6000818154811061019f57600080fd5b906000526020600020016000915090505481565b6000819050919050565b6101c6816101b3565b82525050565b60006020820190506101e160008301846101bd565b92915050565b60008115159050919050565b6101fc816101e7565b82525050565b600060208201905061021760008301846101f3565b92915050565b600080fd5b61022b816101b3565b811461023657600080fd5b50565b60008135905061024881610222565b92915050565b6000602082840312156102645761026361021d565b5b600061027284828501610239565b91505092915050565b7f4e487b7100000000000000000000000000000000000000000000000000000000600052603260045260246000fd5b7f4e487b7100000000000000000000000000000000000000000000000000000000600052601260045260246000fd5b60006102e4826101b3565b91506102ef836101b3565b9250826102ff576102fe6102aa565b5b828206905092915050565b7f4e487b7100000000000000000000000000000000000000000000000000000000600052601160045260246000fd5b6000610344826101b3565b91507fffffffffffffffffffffffffffffffffffffffffffffffffffffffffffffffff8214156103775761037661030a565b5b60018201905091905056fea26469706673582212208548a76f6fe413b6e90299d65ba1c40f03b527c62e7a282bfc68a122f4049aeb64736f6c634300080c0033",
					"opcodes": "PUSH1 0x80 PUSH1 0x40 MSTORE PUSH1 0x40 MLOAD DUP1 PUSH2 0x140 ADD PUSH1 0x40 MSTORE DUP1 PUSH1 0x1 PUSH1 0xFF AND DUP2 MSTORE PUSH1 0x20 ADD PUSH1 0x2 PUSH1 0xFF AND DUP2 MSTORE PUSH1 0x20 ADD PUSH1 0x3 PUSH1 0xFF AND DUP2 MSTORE PUSH1 0x20 ADD PUSH1 0x4 PUSH1 0xFF AND DUP2 MSTORE PUSH1 0x20 ADD PUSH1 0x5 PUSH1 0xFF AND DUP2 MSTORE PUSH1 0x20 ADD PUSH1 0x6 PUSH1 0xFF AND DUP2 MSTORE PUSH1 0x20 ADD PUSH1 0x7 PUSH1 0xFF AND DUP2 MSTORE PUSH1 0x20 ADD PUSH1 0x8 PUSH1 0xFF AND DUP2 MSTORE PUSH1 0x20 ADD PUSH1 0x9 PUSH1 0xFF AND DUP2 MSTORE PUSH1 0x20 ADD PUSH1 0xA PUSH1 0xFF AND DUP2 MSTORE POP PUSH1 0x0 SWAP1 PUSH1 0xA PUSH2 0x82 SWAP3 SWAP2 SWAP1 PUSH2 0x9A JUMP JUMPDEST POP PUSH1 0x0 PUSH1 0x1 SSTORE CALLVALUE DUP1 ISZERO PUSH2 0x94 JUMPI PUSH1 0x0 DUP1 REVERT JUMPDEST POP PUSH2 0x109 JUMP JUMPDEST DUP3 DUP1 SLOAD DUP3 DUP3 SSTORE SWAP1 PUSH1 0x0 MSTORE PUSH1 0x20 PUSH1 0x0 KECCAK256 SWAP1 DUP2 ADD SWAP3 DUP3 ISZERO PUSH2 0xDB JUMPI SWAP2 PUSH1 0x20 MUL DUP3 ADD JUMPDEST DUP3 DUP2 GT ISZERO PUSH2 0xDA JUMPI DUP3 MLOAD DUP3 SWAP1 PUSH1 0xFF AND SWAP1 SSTORE SWAP2 PUSH1 0x20 ADD SWAP2 SWAP1 PUSH1 0x1 ADD SWAP1 PUSH2 0xBA JUMP JUMPDEST JUMPDEST POP SWAP1 POP PUSH2 0xE8 SWAP2 SWAP1 PUSH2 0xEC JUMP JUMPDEST POP SWAP1 JUMP JUMPDEST JUMPDEST DUP1 DUP3 GT ISZERO PUSH2 0x105 JUMPI PUSH1 0x0 DUP2 PUSH1 0x0 SWAP1 SSTORE POP PUSH1 0x1 ADD PUSH2 0xED JUMP JUMPDEST POP SWAP1 JUMP JUMPDEST PUSH2 0x3B8 DUP1 PUSH2 0x118 PUSH1 0x0 CODECOPY PUSH1 0x0 RETURN INVALID PUSH1 0x80 PUSH1 0x40 MSTORE CALLVALUE DUP1 ISZERO PUSH2 0x10 JUMPI PUSH1 0x0 DUP1 REVERT JUMPDEST POP PUSH1 0x4 CALLDATASIZE LT PUSH2 0x41 JUMPI PUSH1 0x0 CALLDATALOAD PUSH1 0xE0 SHR DUP1 PUSH4 0x306D3E02 EQ PUSH2 0x46 JUMPI DUP1 PUSH4 0xC04FE652 EQ PUSH2 0x64 JUMPI DUP1 PUSH4 0xD39FA233 EQ PUSH2 0x82 JUMPI JUMPDEST PUSH1 0x0 DUP1 REVERT JUMPDEST PUSH2 0x4E PUSH2 0xB2 JUMP JUMPDEST PUSH1 0x40 MLOAD PUSH2 0x5B SWAP2 SWAP1 PUSH2 0x1CC JUMP JUMPDEST PUSH1 0x40 MLOAD DUP1 SWAP2 SUB SWAP1 RETURN JUMPDEST PUSH2 0x6C PUSH2 0x12F JUMP JUMPDEST PUSH1 0x40 MLOAD PUSH2 0x79 SWAP2 SWAP1 PUSH2 0x202 JUMP JUMPDEST PUSH1 0x40 MLOAD DUP1 SWAP2 SUB SWAP1 RETURN JUMPDEST PUSH2 0x9C PUSH1 0x4 DUP1 CALLDATASIZE SUB DUP2 ADD SWAP1 PUSH2 0x97 SWAP2 SWAP1 PUSH2 0x24E JUMP JUMPDEST PUSH2 0x18F JUMP JUMPDEST PUSH1 0x40 MLOAD PUSH2 0xA9 SWAP2 SWAP1 PUSH2 0x1CC JUMP JUMPDEST PUSH1 0x40 MLOAD DUP1 SWAP2 SUB SWAP1 RETURN JUMPDEST PUSH1 0x0 DUP1 PUSH1 0x0 SWAP1 POP JUMPDEST PUSH1 0x0 DUP1 SLOAD SWAP1 POP DUP2 LT ISZERO PUSH2 0x126 JUMPI PUSH1 0x0 PUSH1 0x2 PUSH1 0x0 DUP4 DUP2 SLOAD DUP2 LT PUSH2 0xDF JUMPI PUSH2 0xDE PUSH2 0x27B JUMP JUMPDEST JUMPDEST SWAP1 PUSH1 0x0 MSTORE PUSH1 0x20 PUSH1 0x0 KECCAK256 ADD SLOAD PUSH2 0xF4 SWAP2 SWAP1 PUSH2 0x2D9 JUMP JUMPDEST EQ ISZERO PUSH2 0x113 JUMPI PUSH1 0x1 PUSH1 0x0 DUP2 SLOAD DUP1 SWAP3 SWAP2 SWAP1 PUSH2 0x10D SWAP1 PUSH2 0x339 JUMP JUMPDEST SWAP2 SWAP1 POP SSTORE POP JUMPDEST DUP1 DUP1 PUSH2 0x11E SWAP1 PUSH2 0x339 JUMP JUMPDEST SWAP2 POP POP PUSH2 0xBA JUMP JUMPDEST POP PUSH1 0x1 SLOAD SWAP1 POP SWAP1 JUMP JUMPDEST PUSH1 0x0 DUP1 PUSH1 0x0 SWAP1 POP PUSH1 0x0 DUP1 SLOAD SWAP1 POP DUP2 LT ISZERO PUSH2 0x18A JUMPI PUSH1 0x0 PUSH1 0x2 PUSH1 0x0 DUP4 DUP2 SLOAD DUP2 LT PUSH2 0x15B JUMPI PUSH2 0x15A PUSH2 0x27B JUMP JUMPDEST JUMPDEST SWAP1 PUSH1 0x0 MSTORE PUSH1 0x20 PUSH1 0x0 KECCAK256 ADD SLOAD PUSH2 0x170 SWAP2 SWAP1 PUSH2 0x2D9 JUMP JUMPDEST EQ ISZERO PUSH2 0x180 JUMPI PUSH1 0x1 SWAP2 POP POP PUSH2 0x18C JUMP JUMPDEST PUSH1 0x0 SWAP2 POP POP PUSH2 0x18C JUMP JUMPDEST POP JUMPDEST SWAP1 JUMP JUMPDEST PUSH1 0x0 DUP2 DUP2 SLOAD DUP2 LT PUSH2 0x19F JUMPI PUSH1 0x0 DUP1 REVERT JUMPDEST SWAP1 PUSH1 0x0 MSTORE PUSH1 0x20 PUSH1 0x0 KECCAK256 ADD PUSH1 0x0 SWAP2 POP SWAP1 POP SLOAD DUP2 JUMP JUMPDEST PUSH1 0x0 DUP2 SWAP1 POP SWAP2 SWAP1 POP JUMP JUMPDEST PUSH2 0x1C6 DUP2 PUSH2 0x1B3 JUMP JUMPDEST DUP3 MSTORE POP POP JUMP JUMPDEST PUSH1 0x0 PUSH1 0x20 DUP3 ADD SWAP1 POP PUSH2 0x1E1 PUSH1 0x0 DUP4 ADD DUP5 PUSH2 0x1BD JUMP JUMPDEST SWAP3 SWAP2 POP POP JUMP JUMPDEST PUSH1 0x0 DUP2 ISZERO ISZERO SWAP1 POP SWAP2 SWAP1 POP JUMP JUMPDEST PUSH2 0x1FC DUP2 PUSH2 0x1E7 JUMP JUMPDEST DUP3 MSTORE POP POP JUMP JUMPDEST PUSH1 0x0 PUSH1 0x20 DUP3 ADD SWAP1 POP PUSH2 0x217 PUSH1 0x0 DUP4 ADD DUP5 PUSH2 0x1F3 JUMP JUMPDEST SWAP3 SWAP2 POP POP JUMP JUMPDEST PUSH1 0x0 DUP1 REVERT JUMPDEST PUSH2 0x22B DUP2 PUSH2 0x1B3 JUMP JUMPDEST DUP2 EQ PUSH2 0x236 JUMPI PUSH1 0x0 DUP1 REVERT JUMPDEST POP JUMP JUMPDEST PUSH1 0x0 DUP2 CALLDATALOAD SWAP1 POP PUSH2 0x248 DUP2 PUSH2 0x222 JUMP JUMPDEST SWAP3 SWAP2 POP POP JUMP JUMPDEST PUSH1 0x0 PUSH1 0x20 DUP3 DUP5 SUB SLT ISZERO PUSH2 0x264 JUMPI PUSH2 0x263 PUSH2 0x21D JUMP JUMPDEST JUMPDEST PUSH1 0x0 PUSH2 0x272 DUP5 DUP3 DUP6 ADD PUSH2 0x239 JUMP JUMPDEST SWAP2 POP POP SWAP3 SWAP2 POP POP JUMP JUMPDEST PUSH32 0x4E487B7100000000000000000000000000000000000000000000000000000000 PUSH1 0x0 MSTORE PUSH1 0x32 PUSH1 0x4 MSTORE PUSH1 0x24 PUSH1 0x0 REVERT JUMPDEST PUSH32 0x4E487B7100000000000000000000000000000000000000000000000000000000 PUSH1 0x0 MSTORE PUSH1 0x12 PUSH1 0x4 MSTORE PUSH1 0x24 PUSH1 0x0 REVERT JUMPDEST PUSH1 0x0 PUSH2 0x2E4 DUP3 PUSH2 0x1B3 JUMP JUMPDEST SWAP2 POP PUSH2 0x2EF DUP4 PUSH2 0x1B3 JUMP JUMPDEST SWAP3 POP DUP3 PUSH2 0x2FF JUMPI PUSH2 0x2FE PUSH2 0x2AA JUMP JUMPDEST JUMPDEST DUP3 DUP3 MOD SWAP1 POP SWAP3 SWAP2 POP POP JUMP JUMPDEST PUSH32 0x4E487B7100000000000000000000000000000000000000000000000000000000 PUSH1 0x0 MSTORE PUSH1 0x11 PUSH1 0x4 MSTORE PUSH1 0x24 PUSH1 0x0 REVERT JUMPDEST PUSH1 0x0 PUSH2 0x344 DUP3 PUSH2 0x1B3 JUMP JUMPDEST SWAP2 POP PUSH32 0xFFFFFFFFFFFFFFFFFFFFFFFFFFFFFFFFFFFFFFFFFFFFFFFFFFFFFFFFFFFFFFFF DUP3 EQ ISZERO PUSH2 0x377 JUMPI PUSH2 0x376 PUSH2 0x30A JUMP JUMPDEST JUMPDEST PUSH1 0x1 DUP3 ADD SWAP1 POP SWAP2 SWAP1 POP JUMP INVALID LOG2 PUSH5 0x6970667358 0x22 SLT KECCAK256 DUP6 BASEFEE 0xA7 PUSH16 0x6FE413B6E90299D65BA1C40F03B527C6 0x2E PUSH27 0x282BFC68A122F4049AEB64736F6C634300080C0033000000000000 "
				},
				"gasEstimates": {
					"creation": {
						"codeDepositCost": "190400",
						"executionCost": "infinite",
						"totalCost": "infinite"
					},
					"external": {
						"countEvenNumbers()": "infinite",
						"isEvenNumber()": "infinite",
						"numbers(uint256)": "infinite"
					}
				},
				"methodIdentifiers": {
					"countEvenNumbers()": "306d3e02",
					"isEvenNumber()": "c04fe652",
					"numbers(uint256)": "d39fa233"
				}
			},
			"userdoc": {
				"kind": "user",
				"methods": {},
				"version": 1
			}
		}
	}
}